{
  "_format": "hh-sol-artifact-1",
  "contractName": "CardSBT",
  "sourceName": "contracts/CardSBT.sol",
  "abi": [
    {
      "inputs": [
        {
          "internalType": "address",
          "name": "_stableToken",
          "type": "address"
        },
        {
          "internalType": "address",
          "name": "_treasury",
          "type": "address"
        },
        {
          "internalType": "uint256",
          "name": "_mintPrice",
          "type": "uint256"
        },
        {
          "internalType": "uint256",
          "name": "_editPrice",
          "type": "uint256"
        }
      ],
      "stateMutability": "nonpayable",
      "type": "constructor"
    },
    {
      "inputs": [],
      "name": "AlreadyHasCard",
      "type": "error"
    },
    {
      "inputs": [
        {
          "internalType": "address",
          "name": "sender",
          "type": "address"
        },
        {
          "internalType": "uint256",
          "name": "tokenId",
          "type": "uint256"
        },
        {
          "internalType": "address",
          "name": "owner",
          "type": "address"
        }
      ],
      "name": "ERC721IncorrectOwner",
      "type": "error"
    },
    {
      "inputs": [
        {
          "internalType": "address",
          "name": "operator",
          "type": "address"
        },
        {
          "internalType": "uint256",
          "name": "tokenId",
          "type": "uint256"
        }
      ],
      "name": "ERC721InsufficientApproval",
      "type": "error"
    },
    {
      "inputs": [
        {
          "internalType": "address",
          "name": "approver",
          "type": "address"
        }
      ],
      "name": "ERC721InvalidApprover",
      "type": "error"
    },
    {
      "inputs": [
        {
          "internalType": "address",
          "name": "operator",
          "type": "address"
        }
      ],
      "name": "ERC721InvalidOperator",
      "type": "error"
    },
    {
      "inputs": [
        {
          "internalType": "address",
          "name": "owner",
          "type": "address"
        }
      ],
      "name": "ERC721InvalidOwner",
      "type": "error"
    },
    {
      "inputs": [
        {
          "internalType": "address",
          "name": "receiver",
          "type": "address"
        }
      ],
      "name": "ERC721InvalidReceiver",
      "type": "error"
    },
    {
      "inputs": [
        {
          "internalType": "address",
          "name": "sender",
          "type": "address"
        }
      ],
      "name": "ERC721InvalidSender",
      "type": "error"
    },
    {
      "inputs": [
        {
          "internalType": "uint256",
          "name": "tokenId",
          "type": "uint256"
        }
      ],
      "name": "ERC721NonexistentToken",
      "type": "error"
    },
    {
      "inputs": [],
      "name": "InvalidTreasury",
      "type": "error"
    },
    {
      "inputs": [],
      "name": "NoCardFound",
      "type": "error"
    },
    {
      "inputs": [
        {
          "internalType": "address",
          "name": "owner",
          "type": "address"
        }
      ],
      "name": "OwnableInvalidOwner",
      "type": "error"
    },
    {
      "inputs": [
        {
          "internalType": "address",
          "name": "account",
          "type": "address"
        }
      ],
      "name": "OwnableUnauthorizedAccount",
      "type": "error"
    },
    {
      "inputs": [],
      "name": "PaymentFailed",
      "type": "error"
    },
    {
      "inputs": [],
      "name": "Soulbound",
      "type": "error"
    },
    {
      "anonymous": false,
      "inputs": [
        {
          "indexed": true,
          "internalType": "address",
          "name": "owner",
          "type": "address"
        },
        {
          "indexed": true,
          "internalType": "address",
          "name": "approved",
          "type": "address"
        },
        {
          "indexed": true,
          "internalType": "uint256",
          "name": "tokenId",
          "type": "uint256"
        }
      ],
      "name": "Approval",
      "type": "event"
    },
    {
      "anonymous": false,
      "inputs": [
        {
          "indexed": true,
          "internalType": "address",
          "name": "owner",
          "type": "address"
        },
        {
          "indexed": true,
          "internalType": "address",
          "name": "operator",
          "type": "address"
        },
        {
          "indexed": false,
          "internalType": "bool",
          "name": "approved",
          "type": "bool"
        }
      ],
      "name": "ApprovalForAll",
      "type": "event"
    },
    {
      "anonymous": false,
      "inputs": [
        {
          "indexed": true,
          "internalType": "address",
          "name": "owner",
          "type": "address"
        },
        {
          "indexed": true,
          "internalType": "uint256",
          "name": "tokenId",
          "type": "uint256"
        }
      ],
      "name": "CardMinted",
      "type": "event"
    },
    {
      "anonymous": false,
      "inputs": [
        {
          "indexed": true,
          "internalType": "address",
          "name": "owner",
          "type": "address"
        },
        {
          "indexed": true,
          "internalType": "uint256",
          "name": "tokenId",
          "type": "uint256"
        }
      ],
      "name": "CardUpdated",
      "type": "event"
    },
    {
      "anonymous": false,
      "inputs": [
        {
          "indexed": true,
          "internalType": "address",
          "name": "previousOwner",
          "type": "address"
        },
        {
          "indexed": true,
          "internalType": "address",
          "name": "newOwner",
          "type": "address"
        }
      ],
      "name": "OwnershipTransferred",
      "type": "event"
    },
    {
      "anonymous": false,
      "inputs": [
        {
          "indexed": false,
          "internalType": "uint256",
          "name": "mintPrice",
          "type": "uint256"
        },
        {
          "indexed": false,
          "internalType": "uint256",
          "name": "editPrice",
          "type": "uint256"
        }
      ],
      "name": "PricingUpdated",
      "type": "event"
    },
    {
      "anonymous": false,
      "inputs": [
        {
          "indexed": false,
          "internalType": "address",
          "name": "token",
          "type": "address"
        }
      ],
      "name": "StableTokenUpdated",
      "type": "event"
    },
    {
      "anonymous": false,
      "inputs": [
        {
          "indexed": true,
          "internalType": "address",
          "name": "from",
          "type": "address"
        },
        {
          "indexed": true,
          "internalType": "address",
          "name": "to",
          "type": "address"
        },
        {
          "indexed": true,
          "internalType": "uint256",
          "name": "tokenId",
          "type": "uint256"
        }
      ],
      "name": "Transfer",
      "type": "event"
    },
    {
      "anonymous": false,
      "inputs": [
        {
          "indexed": false,
          "internalType": "address",
          "name": "treasury",
          "type": "address"
        }
      ],
      "name": "TreasuryUpdated",
      "type": "event"
    },
    {
      "inputs": [
        {
          "internalType": "address",
          "name": "",
          "type": "address"
        },
        {
          "internalType": "uint256",
          "name": "",
          "type": "uint256"
        }
      ],
      "name": "approve",
      "outputs": [],
      "stateMutability": "nonpayable",
      "type": "function"
    },
    {
      "inputs": [
        {
          "internalType": "address",
          "name": "owner",
          "type": "address"
        }
      ],
      "name": "balanceOf",
      "outputs": [
        {
          "internalType": "uint256",
          "name": "",
          "type": "uint256"
        }
      ],
      "stateMutability": "view",
      "type": "function"
    },
    {
      "inputs": [
        {
          "internalType": "address",
          "name": "",
          "type": "address"
        }
      ],
      "name": "cardOf",
      "outputs": [
        {
          "internalType": "uint256",
          "name": "",
          "type": "uint256"
        }
      ],
      "stateMutability": "view",
      "type": "function"
    },
    {
      "inputs": [],
      "name": "editPrice",
      "outputs": [
        {
          "internalType": "uint256",
          "name": "",
          "type": "uint256"
        }
      ],
      "stateMutability": "view",
      "type": "function"
    },
    {
      "inputs": [
        {
          "internalType": "uint256",
          "name": "tokenId",
          "type": "uint256"
        }
      ],
      "name": "getApproved",
      "outputs": [
        {
          "internalType": "address",
          "name": "",
          "type": "address"
        }
      ],
      "stateMutability": "view",
      "type": "function"
    },
    {
      "inputs": [
        {
          "internalType": "address",
          "name": "owner",
          "type": "address"
        },
        {
          "internalType": "address",
          "name": "operator",
          "type": "address"
        }
      ],
      "name": "isApprovedForAll",
      "outputs": [
        {
          "internalType": "bool",
          "name": "",
          "type": "bool"
        }
      ],
      "stateMutability": "view",
      "type": "function"
    },
    {
      "inputs": [
        {
          "components": [
            {
              "internalType": "string",
              "name": "displayName",
              "type": "string"
            },
            {
              "internalType": "string",
              "name": "avatarUrl",
              "type": "string"
            },
            {
              "internalType": "string",
              "name": "bio",
              "type": "string"
            },
            {
              "internalType": "string",
              "name": "socials",
              "type": "string"
            },
            {
              "internalType": "string",
              "name": "websites",
              "type": "string"
            }
          ],
          "internalType": "struct CardSBT.Profile",
          "name": "_profile",
          "type": "tuple"
        }
      ],
      "name": "mintCard",
      "outputs": [],
      "stateMutability": "nonpayable",
      "type": "function"
    },
    {
      "inputs": [],
      "name": "mintPrice",
      "outputs": [
        {
          "internalType": "uint256",
          "name": "",
          "type": "uint256"
        }
      ],
      "stateMutability": "view",
      "type": "function"
    },
    {
      "inputs": [],
      "name": "name",
      "outputs": [
        {
          "internalType": "string",
          "name": "",
          "type": "string"
        }
      ],
      "stateMutability": "view",
      "type": "function"
    },
    {
      "inputs": [],
      "name": "owner",
      "outputs": [
        {
          "internalType": "address",
          "name": "",
          "type": "address"
        }
      ],
      "stateMutability": "view",
      "type": "function"
    },
    {
      "inputs": [
        {
          "internalType": "uint256",
          "name": "tokenId",
          "type": "uint256"
        }
      ],
      "name": "ownerOf",
      "outputs": [
        {
          "internalType": "address",
          "name": "",
          "type": "address"
        }
      ],
      "stateMutability": "view",
      "type": "function"
    },
    {
      "inputs": [
        {
          "internalType": "uint256",
          "name": "",
          "type": "uint256"
        }
      ],
      "name": "profiles",
      "outputs": [
        {
          "internalType": "string",
          "name": "displayName",
          "type": "string"
        },
        {
          "internalType": "string",
          "name": "avatarUrl",
          "type": "string"
        },
        {
          "internalType": "string",
          "name": "bio",
          "type": "string"
        },
        {
          "internalType": "string",
          "name": "socials",
          "type": "string"
        },
        {
          "internalType": "string",
          "name": "websites",
          "type": "string"
        }
      ],
      "stateMutability": "view",
      "type": "function"
    },
    {
      "inputs": [],
      "name": "renounceOwnership",
      "outputs": [],
      "stateMutability": "nonpayable",
      "type": "function"
    },
    {
      "inputs": [
        {
          "internalType": "address",
          "name": "from",
          "type": "address"
        },
        {
          "internalType": "address",
          "name": "to",
          "type": "address"
        },
        {
          "internalType": "uint256",
          "name": "tokenId",
          "type": "uint256"
        }
      ],
      "name": "safeTransferFrom",
      "outputs": [],
      "stateMutability": "nonpayable",
      "type": "function"
    },
    {
      "inputs": [
        {
          "internalType": "address",
          "name": "",
          "type": "address"
        },
        {
          "internalType": "address",
          "name": "",
          "type": "address"
        },
        {
          "internalType": "uint256",
          "name": "",
          "type": "uint256"
        },
        {
          "internalType": "bytes",
          "name": "",
          "type": "bytes"
        }
      ],
      "name": "safeTransferFrom",
      "outputs": [],
      "stateMutability": "nonpayable",
      "type": "function"
    },
    {
      "inputs": [
        {
          "internalType": "address",
          "name": "",
          "type": "address"
        },
        {
          "internalType": "bool",
          "name": "",
          "type": "bool"
        }
      ],
      "name": "setApprovalForAll",
      "outputs": [],
      "stateMutability": "nonpayable",
      "type": "function"
    },
    {
      "inputs": [
        {
          "internalType": "uint256",
          "name": "_mintPrice",
          "type": "uint256"
        },
        {
          "internalType": "uint256",
          "name": "_editPrice",
          "type": "uint256"
        }
      ],
      "name": "setPricing",
      "outputs": [],
      "stateMutability": "nonpayable",
      "type": "function"
    },
    {
      "inputs": [
        {
          "internalType": "address",
          "name": "_token",
          "type": "address"
        }
      ],
      "name": "setStableToken",
      "outputs": [],
      "stateMutability": "nonpayable",
      "type": "function"
    },
    {
      "inputs": [
        {
          "internalType": "address",
          "name": "_treasury",
          "type": "address"
        }
      ],
      "name": "setTreasury",
      "outputs": [],
      "stateMutability": "nonpayable",
      "type": "function"
    },
    {
      "inputs": [],
      "name": "stableToken",
      "outputs": [
        {
          "internalType": "address",
          "name": "",
          "type": "address"
        }
      ],
      "stateMutability": "view",
      "type": "function"
    },
    {
      "inputs": [
        {
          "internalType": "bytes4",
          "name": "interfaceId",
          "type": "bytes4"
        }
      ],
      "name": "supportsInterface",
      "outputs": [
        {
          "internalType": "bool",
          "name": "",
          "type": "bool"
        }
      ],
      "stateMutability": "view",
      "type": "function"
    },
    {
      "inputs": [],
      "name": "symbol",
      "outputs": [
        {
          "internalType": "string",
          "name": "",
          "type": "string"
        }
      ],
      "stateMutability": "view",
      "type": "function"
    },
    {
      "inputs": [
        {
          "internalType": "uint256",
          "name": "tokenId",
          "type": "uint256"
        }
      ],
      "name": "tokenURI",
      "outputs": [
        {
          "internalType": "string",
          "name": "",
          "type": "string"
        }
      ],
      "stateMutability": "view",
      "type": "function"
    },
    {
      "inputs": [],
      "name": "totalSupply",
      "outputs": [
        {
          "internalType": "uint256",
          "name": "",
          "type": "uint256"
        }
      ],
      "stateMutability": "view",
      "type": "function"
    },
    {
      "inputs": [
        {
          "internalType": "address",
          "name": "",
          "type": "address"
        },
        {
          "internalType": "address",
          "name": "",
          "type": "address"
        },
        {
          "internalType": "uint256",
          "name": "",
          "type": "uint256"
        }
      ],
      "name": "transferFrom",
      "outputs": [],
      "stateMutability": "nonpayable",
      "type": "function"
    },
    {
      "inputs": [
        {
          "internalType": "address",
          "name": "newOwner",
          "type": "address"
        }
      ],
      "name": "transferOwnership",
      "outputs": [],
      "stateMutability": "nonpayable",
      "type": "function"
    },
    {
      "inputs": [],
      "name": "treasury",
      "outputs": [
        {
          "internalType": "address",
          "name": "",
          "type": "address"
        }
      ],
      "stateMutability": "view",
      "type": "function"
    },
    {
      "inputs": [
        {
          "components": [
            {
              "internalType": "string",
              "name": "displayName",
              "type": "string"
            },
            {
              "internalType": "string",
              "name": "avatarUrl",
              "type": "string"
            },
            {
              "internalType": "string",
              "name": "bio",
              "type": "string"
            },
            {
              "internalType": "string",
              "name": "socials",
              "type": "string"
            },
            {
              "internalType": "string",
              "name": "websites",
              "type": "string"
            }
          ],
          "internalType": "struct CardSBT.Profile",
          "name": "_profile",
          "type": "tuple"
        }
      ],
      "name": "updateCard",
      "outputs": [],
      "stateMutability": "nonpayable",
      "type": "function"
    },
    {
      "inputs": [],
      "name": "withdraw",
      "outputs": [],
      "stateMutability": "nonpayable",
      "type": "function"
    },
    {
      "inputs": [],
      "name": "withdrawETH",
      "outputs": [],
      "stateMutability": "nonpayable",
      "type": "function"
    },
    {
      "stateMutability": "payable",
      "type": "receive"
    }
  ],
  "bytecode": "0x60806040523480156200001157600080fd5b5060405162003eb238038062003eb2833981810160405281019062000037919062000356565b336040518060400160405280601481526020017f4d696e694170702050726f66696c6520436172640000000000000000000000008152506040518060400160405280600481526020017f43415244000000000000000000000000000000000000000000000000000000008152508160009081620000b5919062000638565b508060019081620000c7919062000638565b505050600073ffffffffffffffffffffffffffffffffffffffff168173ffffffffffffffffffffffffffffffffffffffff16036200013f5760006040517f1e4fbdf700000000000000000000000000000000000000000000000000000000815260040162000136919062000730565b60405180910390fd5b6200015081620001eb60201b60201c565b5083600860006101000a81548173ffffffffffffffffffffffffffffffffffffffff021916908373ffffffffffffffffffffffffffffffffffffffff16021790555082600960006101000a81548173ffffffffffffffffffffffffffffffffffffffff021916908373ffffffffffffffffffffffffffffffffffffffff16021790555081600a8190555080600b81905550505050506200074d565b6000600660009054906101000a900473ffffffffffffffffffffffffffffffffffffffff16905081600660006101000a81548173ffffffffffffffffffffffffffffffffffffffff021916908373ffffffffffffffffffffffffffffffffffffffff1602179055508173ffffffffffffffffffffffffffffffffffffffff168173ffffffffffffffffffffffffffffffffffffffff167f8be0079c531659141344cd1fd0a4f28419497f9722a3daafe3b4186f6b6457e060405160405180910390a35050565b600080fd5b600073ffffffffffffffffffffffffffffffffffffffff82169050919050565b6000620002e382620002b6565b9050919050565b620002f581620002d6565b81146200030157600080fd5b50565b6000815190506200031581620002ea565b92915050565b6000819050919050565b62000330816200031b565b81146200033c57600080fd5b50565b600081519050620003508162000325565b92915050565b60008060008060808587031215620003735762000372620002b1565b5b6000620003838782880162000304565b9450506020620003968782880162000304565b9350506040620003a9878288016200033f565b9250506060620003bc878288016200033f565b91505092959194509250565b600081519050919050565b7f4e487b7100000000000000000000000000000000000000000000000000000000600052604160045260246000fd5b7f4e487b7100000000000000000000000000000000000000000000000000000000600052602260045260246000fd5b600060028204905060018216806200044a57607f821691505b60208210810362000460576200045f62000402565b5b50919050565b60008190508160005260206000209050919050565b60006020601f8301049050919050565b600082821b905092915050565b600060088302620004ca7fffffffffffffffffffffffffffffffffffffffffffffffffffffffffffffffff826200048b565b620004d686836200048b565b95508019841693508086168417925050509392505050565b6000819050919050565b600062000519620005136200050d846200031b565b620004ee565b6200031b565b9050919050565b6000819050919050565b6200053583620004f8565b6200054d620005448262000520565b84845462000498565b825550505050565b600090565b6200056462000555565b620005718184846200052a565b505050565b5b8181101562000599576200058d6000826200055a565b60018101905062000577565b5050565b601f821115620005e857620005b28162000466565b620005bd846200047b565b81016020851015620005cd578190505b620005e5620005dc856200047b565b83018262000576565b50505b505050565b600082821c905092915050565b60006200060d60001984600802620005ed565b1980831691505092915050565b6000620006288383620005fa565b9150826002028217905092915050565b6200064382620003c8565b67ffffffffffffffff8111156200065f576200065e620003d3565b5b6200066b825462000431565b620006788282856200059d565b600060209050601f831160018114620006b057600084156200069b578287015190505b620006a785826200061a565b86555062000717565b601f198416620006c08662000466565b60005b82811015620006ea57848901518255600182019150602085019450602081019050620006c3565b868310156200070a578489015162000706601f891682620005fa565b8355505b6001600288020188555050505b505050505050565b6200072a81620002d6565b82525050565b60006020820190506200074760008301846200071f565b92915050565b613755806200075d6000396000f3fe6080604052600436106101d15760003560e01c8063715018a6116100f7578063c87b56dd11610095578063e154686b11610064578063e154686b14610671578063e985e9c51461069a578063f0f44260146106d7578063f2fde38b14610700576101d8565b8063c87b56dd146105cb578063ca05588a14610608578063db1bc87b14610631578063e086e5ec1461065a576101d8565b8063a22cb465116100d1578063a22cb4651461050d578063a9d75b2b14610536578063b88d4fde14610561578063c36fe3d61461058a576101d8565b8063715018a6146104a05780638da5cb5b146104b757806395d89b41146104e2576101d8565b80633ccfd60b1161016f5780636352211e1161013e5780636352211e146103d05780636817c76c1461040d5780636e8754ac1461043857806370a0823114610463576101d8565b80633ccfd60b1461032857806342842e0e1461033f57806348e748a01461036857806361d027b3146103a5576101d8565b8063095ea7b3116101ab578063095ea7b31461028257806318160ddd146102ab57806322397604146102d657806323b872dd146102ff576101d8565b806301ffc9a7146101dd57806306fdde031461021a578063081812fc14610245576101d8565b366101d857005b600080fd5b3480156101e957600080fd5b5061020460048036038101906101ff919061281d565b610729565b6040516102119190612865565b60405180910390f35b34801561022657600080fd5b5061022f61080b565b60405161023c9190612910565b60405180910390f35b34801561025157600080fd5b5061026c60048036038101906102679190612968565b61089d565b60405161027991906129d6565b60405180910390f35b34801561028e57600080fd5b506102a960048036038101906102a49190612a1d565b6108b9565b005b3480156102b757600080fd5b506102c06108eb565b6040516102cd9190612a6c565b60405180910390f35b3480156102e257600080fd5b506102fd60048036038101906102f89190612cde565b6108f1565b005b34801561030b57600080fd5b5061032660048036038101906103219190612d27565b610b1c565b005b34801561033457600080fd5b5061033d610b4e565b005b34801561034b57600080fd5b5061036660048036038101906103619190612d27565b610d81565b005b34801561037457600080fd5b5061038f600480360381019061038a9190612d7a565b610da1565b60405161039c9190612a6c565b60405180910390f35b3480156103b157600080fd5b506103ba610db9565b6040516103c791906129d6565b60405180910390f35b3480156103dc57600080fd5b506103f760048036038101906103f29190612968565b610ddf565b60405161040491906129d6565b60405180910390f35b34801561041957600080fd5b50610422610df1565b60405161042f9190612a6c565b60405180910390f35b34801561044457600080fd5b5061044d610df7565b60405161045a9190612a6c565b60405180910390f35b34801561046f57600080fd5b5061048a60048036038101906104859190612d7a565b610dfd565b6040516104979190612a6c565b60405180910390f35b3480156104ac57600080fd5b506104b5610eb7565b005b3480156104c357600080fd5b506104cc610ecb565b6040516104d991906129d6565b60405180910390f35b3480156104ee57600080fd5b506104f7610ef5565b6040516105049190612910565b60405180910390f35b34801561051957600080fd5b50610534600480360381019061052f9190612dd3565b610f87565b005b34801561054257600080fd5b5061054b610fb9565b60405161055891906129d6565b60405180910390f35b34801561056d57600080fd5b5061058860048036038101906105839190612eb4565b610fdf565b005b34801561059657600080fd5b506105b160048036038101906105ac9190612968565b611011565b6040516105c2959493929190612f37565b60405180910390f35b3480156105d757600080fd5b506105f260048036038101906105ed9190612968565b6112ef565b6040516105ff9190612910565b60405180910390f35b34801561061457600080fd5b5061062f600480360381019061062a9190612fad565b611358565b005b34801561063d57600080fd5b5061065860048036038101906106539190612d7a565b6113ab565b005b34801561066657600080fd5b5061066f61142e565b005b34801561067d57600080fd5b5061069860048036038101906106939190612cde565b6115d2565b005b3480156106a657600080fd5b506106c160048036038101906106bc9190612fed565b611865565b6040516106ce9190612865565b60405180910390f35b3480156106e357600080fd5b506106fe60048036038101906106f99190612d7a565b6118f9565b005b34801561070c57600080fd5b5061072760048036038101906107229190612d7a565b6119e2565b005b60007f80ac58cd000000000000000000000000000000000000000000000000000000007bffffffffffffffffffffffffffffffffffffffffffffffffffffffff1916827bffffffffffffffffffffffffffffffffffffffffffffffffffffffff191614806107f457507f5b5e139f000000000000000000000000000000000000000000000000000000007bffffffffffffffffffffffffffffffffffffffffffffffffffffffff1916827bffffffffffffffffffffffffffffffffffffffffffffffffffffffff1916145b80610804575061080382611a68565b5b9050919050565b60606000805461081a9061305c565b80601f01602080910402602001604051908101604052809291908181526020018280546108469061305c565b80156108935780601f1061086857610100808354040283529160200191610893565b820191906000526020600020905b81548152906001019060200180831161087657829003601f168201915b5050505050905090565b60006108a882611ad2565b506108b282611b5a565b9050919050565b6040517fa4420a9500000000000000000000000000000000000000000000000000000000815260040160405180910390fd5b60075481565b6000600d60003373ffffffffffffffffffffffffffffffffffffffff1673ffffffffffffffffffffffffffffffffffffffff1681526020019081526020016000205490506000810361096f576040517f832ba8b000000000000000000000000000000000000000000000000000000000815260040160405180910390fd5b6000600860009054906101000a900473ffffffffffffffffffffffffffffffffffffffff1673ffffffffffffffffffffffffffffffffffffffff166323b872dd3330600b546040518463ffffffff1660e01b81526004016109d29392919061308d565b6020604051808303816000875af11580156109f1573d6000803e3d6000fd5b505050506040513d601f19601f82011682018060405250810190610a1591906130d9565b905080610a4e576040517ff499da2000000000000000000000000000000000000000000000000000000000815260040160405180910390fd5b82600c60008481526020019081526020016000206000820151816000019081610a7791906132b2565b506020820151816001019081610a8d91906132b2565b506040820151816002019081610aa391906132b2565b506060820151816003019081610ab991906132b2565b506080820151816004019081610acf91906132b2565b50905050813373ffffffffffffffffffffffffffffffffffffffff167fc5d1d690c01434ddfef4d1d270d15f2e9b6ab35193314e3335c12bbbfcf15c1a60405160405180910390a3505050565b6040517fa4420a9500000000000000000000000000000000000000000000000000000000815260040160405180910390fd5b610b56610ecb565b73ffffffffffffffffffffffffffffffffffffffff163373ffffffffffffffffffffffffffffffffffffffff161480610bdc5750600960009054906101000a900473ffffffffffffffffffffffffffffffffffffffff1673ffffffffffffffffffffffffffffffffffffffff163373ffffffffffffffffffffffffffffffffffffffff16145b610c1b576040517f08c379a0000000000000000000000000000000000000000000000000000000008152600401610c12906133d0565b60405180910390fd5b6000600860009054906101000a900473ffffffffffffffffffffffffffffffffffffffff1673ffffffffffffffffffffffffffffffffffffffff166370a08231306040518263ffffffff1660e01b8152600401610c7891906129d6565b602060405180830381865afa158015610c95573d6000803e3d6000fd5b505050506040513d601f19601f82011682018060405250810190610cb99190613405565b9050600860009054906101000a900473ffffffffffffffffffffffffffffffffffffffff1673ffffffffffffffffffffffffffffffffffffffff1663a9059cbb600960009054906101000a900473ffffffffffffffffffffffffffffffffffffffff16836040518363ffffffff1660e01b8152600401610d3a929190613432565b6020604051808303816000875af1158015610d59573d6000803e3d6000fd5b505050506040513d601f19601f82011682018060405250810190610d7d91906130d9565b5050565b610d9c83838360405180602001604052806000815250610fdf565b505050565b600d6020528060005260406000206000915090505481565b600960009054906101000a900473ffffffffffffffffffffffffffffffffffffffff1681565b6000610dea82611ad2565b9050919050565b600a5481565b600b5481565b60008073ffffffffffffffffffffffffffffffffffffffff168273ffffffffffffffffffffffffffffffffffffffff1603610e705760006040517f89c62b64000000000000000000000000000000000000000000000000000000008152600401610e6791906129d6565b60405180910390fd5b600360008373ffffffffffffffffffffffffffffffffffffffff1673ffffffffffffffffffffffffffffffffffffffff168152602001908152602001600020549050919050565b610ebf611b97565b610ec96000611c1e565b565b6000600660009054906101000a900473ffffffffffffffffffffffffffffffffffffffff16905090565b606060018054610f049061305c565b80601f0160208091040260200160405190810160405280929190818152602001828054610f309061305c565b8015610f7d5780601f10610f5257610100808354040283529160200191610f7d565b820191906000526020600020905b815481529060010190602001808311610f6057829003601f168201915b5050505050905090565b6040517fa4420a9500000000000000000000000000000000000000000000000000000000815260040160405180910390fd5b600860009054906101000a900473ffffffffffffffffffffffffffffffffffffffff1681565b6040517fa4420a9500000000000000000000000000000000000000000000000000000000815260040160405180910390fd5b600c6020528060005260406000206000915090508060000180546110349061305c565b80601f01602080910402602001604051908101604052809291908181526020018280546110609061305c565b80156110ad5780601f10611082576101008083540402835291602001916110ad565b820191906000526020600020905b81548152906001019060200180831161109057829003601f168201915b5050505050908060010180546110c29061305c565b80601f01602080910402602001604051908101604052809291908181526020018280546110ee9061305c565b801561113b5780601f106111105761010080835404028352916020019161113b565b820191906000526020600020905b81548152906001019060200180831161111e57829003601f168201915b5050505050908060020180546111509061305c565b80601f016020809104026020016040519081016040528092919081815260200182805461117c9061305c565b80156111c95780601f1061119e576101008083540402835291602001916111c9565b820191906000526020600020905b8154815290600101906020018083116111ac57829003601f168201915b5050505050908060030180546111de9061305c565b80601f016020809104026020016040519081016040528092919081815260200182805461120a9061305c565b80156112575780601f1061122c57610100808354040283529160200191611257565b820191906000526020600020905b81548152906001019060200180831161123a57829003601f168201915b50505050509080600401805461126c9061305c565b80601f01602080910402602001604051908101604052809291908181526020018280546112989061305c565b80156112e55780601f106112ba576101008083540402835291602001916112e5565b820191906000526020600020905b8154815290600101906020018083116112c857829003601f168201915b5050505050905085565b60606112fa82611ad2565b506000611305611ce4565b905060008151116113255760405180602001604052806000815250611350565b8061132f84611cfb565b604051602001611340929190613497565b6040516020818303038152906040525b915050919050565b611360611b97565b81600a8190555080600b819055507f335f5afc83fe8c5a011a96dc39bcce9fb9d46fb5986502f7040e76e28b036123828260405161139f9291906134bb565b60405180910390a15050565b6113b3611b97565b80600860006101000a81548173ffffffffffffffffffffffffffffffffffffffff021916908373ffffffffffffffffffffffffffffffffffffffff1602179055507f28ed93355b7564d68a9fe18932a519e70a2f4baeac4f4e5a4cedc861a815af358160405161142391906129d6565b60405180910390a150565b611436610ecb565b73ffffffffffffffffffffffffffffffffffffffff163373ffffffffffffffffffffffffffffffffffffffff1614806114bc5750600960009054906101000a900473ffffffffffffffffffffffffffffffffffffffff1673ffffffffffffffffffffffffffffffffffffffff163373ffffffffffffffffffffffffffffffffffffffff16145b6114fb576040517f08c379a00000000000000000000000000000000000000000000000000000000081526004016114f2906133d0565b60405180910390fd5b60004790506000600960009054906101000a900473ffffffffffffffffffffffffffffffffffffffff1673ffffffffffffffffffffffffffffffffffffffff168260405161154890613515565b60006040518083038185875af1925050503d8060008114611585576040519150601f19603f3d011682016040523d82523d6000602084013e61158a565b606091505b50509050806115ce576040517f08c379a00000000000000000000000000000000000000000000000000000000081526004016115c590613576565b60405180910390fd5b5050565b6000600d60003373ffffffffffffffffffffffffffffffffffffffff1673ffffffffffffffffffffffffffffffffffffffff168152602001908152602001600020541461164b576040517f3222ee6100000000000000000000000000000000000000000000000000000000815260040160405180910390fd5b6000600860009054906101000a900473ffffffffffffffffffffffffffffffffffffffff1673ffffffffffffffffffffffffffffffffffffffff166323b872dd3330600a546040518463ffffffff1660e01b81526004016116ae9392919061308d565b6020604051808303816000875af11580156116cd573d6000803e3d6000fd5b505050506040513d601f19601f820116820180604052508101906116f191906130d9565b90508061172a576040517ff499da2000000000000000000000000000000000000000000000000000000000815260040160405180910390fd5b6007600081548092919061173d906135c5565b91905055506000600754905082600c6000838152602001908152602001600020600082015181600001908161177291906132b2565b50602082015181600101908161178891906132b2565b50604082015181600201908161179e91906132b2565b5060608201518160030190816117b491906132b2565b5060808201518160040190816117ca91906132b2565b5090505080600d60003373ffffffffffffffffffffffffffffffffffffffff1673ffffffffffffffffffffffffffffffffffffffff1681526020019081526020016000208190555061181c3382611dc9565b803373ffffffffffffffffffffffffffffffffffffffff167f91f9f8eee707de5d1301c45b783fb95d1e7fd7535bf3f7dda2f950a9b488ccb260405160405180910390a3505050565b6000600560008473ffffffffffffffffffffffffffffffffffffffff1673ffffffffffffffffffffffffffffffffffffffff16815260200190815260200160002060008373ffffffffffffffffffffffffffffffffffffffff1673ffffffffffffffffffffffffffffffffffffffff16815260200190815260200160002060009054906101000a900460ff16905092915050565b611901611b97565b600073ffffffffffffffffffffffffffffffffffffffff168173ffffffffffffffffffffffffffffffffffffffff1603611967576040517f14bcf5c800000000000000000000000000000000000000000000000000000000815260040160405180910390fd5b80600960006101000a81548173ffffffffffffffffffffffffffffffffffffffff021916908373ffffffffffffffffffffffffffffffffffffffff1602179055507f7dae230f18360d76a040c81f050aa14eb9d6dc7901b20fc5d855e2a20fe814d1816040516119d791906129d6565b60405180910390a150565b6119ea611b97565b600073ffffffffffffffffffffffffffffffffffffffff168173ffffffffffffffffffffffffffffffffffffffff1603611a5c5760006040517f1e4fbdf7000000000000000000000000000000000000000000000000000000008152600401611a5391906129d6565b60405180910390fd5b611a6581611c1e565b50565b60007f01ffc9a7000000000000000000000000000000000000000000000000000000007bffffffffffffffffffffffffffffffffffffffffffffffffffffffff1916827bffffffffffffffffffffffffffffffffffffffffffffffffffffffff1916149050919050565b600080611ade83611de7565b9050600073ffffffffffffffffffffffffffffffffffffffff168173ffffffffffffffffffffffffffffffffffffffff1603611b5157826040517f7e273289000000000000000000000000000000000000000000000000000000008152600401611b489190612a6c565b60405180910390fd5b80915050919050565b60006004600083815260200190815260200160002060009054906101000a900473ffffffffffffffffffffffffffffffffffffffff169050919050565b611b9f611e24565b73ffffffffffffffffffffffffffffffffffffffff16611bbd610ecb565b73ffffffffffffffffffffffffffffffffffffffff1614611c1c57611be0611e24565b6040517f118cdaa7000000000000000000000000000000000000000000000000000000008152600401611c1391906129d6565b60405180910390fd5b565b6000600660009054906101000a900473ffffffffffffffffffffffffffffffffffffffff16905081600660006101000a81548173ffffffffffffffffffffffffffffffffffffffff021916908373ffffffffffffffffffffffffffffffffffffffff1602179055508173ffffffffffffffffffffffffffffffffffffffff168173ffffffffffffffffffffffffffffffffffffffff167f8be0079c531659141344cd1fd0a4f28419497f9722a3daafe3b4186f6b6457e060405160405180910390a35050565b606060405180602001604052806000815250905090565b606060006001611d0a84611e2c565b01905060008167ffffffffffffffff811115611d2957611d28612a8c565b5b6040519080825280601f01601f191660200182016040528015611d5b5781602001600182028036833780820191505090505b509050600082602083010190505b600115611dbe578080600190039150507f3031323334353637383961626364656600000000000000000000000000000000600a86061a8153600a8581611db257611db161360d565b5b04945060008503611d69575b819350505050919050565b611de3828260405180602001604052806000815250611f7f565b5050565b60006002600083815260200190815260200160002060009054906101000a900473ffffffffffffffffffffffffffffffffffffffff169050919050565b600033905090565b600080600090507a184f03e93ff9f4daa797ed6e38ed64bf6a1f0100000000000000008310611e8a577a184f03e93ff9f4daa797ed6e38ed64bf6a1f0100000000000000008381611e8057611e7f61360d565b5b0492506040810190505b6d04ee2d6d415b85acef81000000008310611ec7576d04ee2d6d415b85acef81000000008381611ebd57611ebc61360d565b5b0492506020810190505b662386f26fc100008310611ef657662386f26fc100008381611eec57611eeb61360d565b5b0492506010810190505b6305f5e1008310611f1f576305f5e1008381611f1557611f1461360d565b5b0492506008810190505b6127108310611f44576127108381611f3a57611f3961360d565b5b0492506004810190505b60648310611f675760648381611f5d57611f5c61360d565b5b0492506002810190505b600a8310611f76576001810190505b80915050919050565b611f898383611fa3565b611f9e611f94611e24565b600085858561209c565b505050565b600073ffffffffffffffffffffffffffffffffffffffff168273ffffffffffffffffffffffffffffffffffffffff16036120155760006040517f64a0ae9200000000000000000000000000000000000000000000000000000000815260040161200c91906129d6565b60405180910390fd5b60006120238383600061224d565b9050600073ffffffffffffffffffffffffffffffffffffffff168173ffffffffffffffffffffffffffffffffffffffff16146120975760006040517f73c6ac6e00000000000000000000000000000000000000000000000000000000815260040161208e91906129d6565b60405180910390fd5b505050565b60008373ffffffffffffffffffffffffffffffffffffffff163b1115612246578273ffffffffffffffffffffffffffffffffffffffff1663150b7a02868685856040518563ffffffff1660e01b81526004016120fb9493929190613691565b6020604051808303816000875af192505050801561213757506040513d601f19601f8201168201806040525081019061213491906136f2565b60015b6121bb573d8060008114612167576040519150601f19603f3d011682016040523d82523d6000602084013e61216c565b606091505b5060008151036121b357836040517f64a0ae920000000000000000000000000000000000000000000000000000000081526004016121aa91906129d6565b60405180910390fd5b805160208201fd5b63150b7a0260e01b7bffffffffffffffffffffffffffffffffffffffffffffffffffffffff1916817bffffffffffffffffffffffffffffffffffffffffffffffffffffffff19161461224457836040517f64a0ae9200000000000000000000000000000000000000000000000000000000815260040161223b91906129d6565b60405180910390fd5b505b5050505050565b60008061225984611de7565b9050600073ffffffffffffffffffffffffffffffffffffffff168373ffffffffffffffffffffffffffffffffffffffff161461229b5761229a818486612467565b5b600073ffffffffffffffffffffffffffffffffffffffff168173ffffffffffffffffffffffffffffffffffffffff161461232c576122dd60008560008061252b565b6001600360008373ffffffffffffffffffffffffffffffffffffffff1673ffffffffffffffffffffffffffffffffffffffff168152602001908152602001600020600082825403925050819055505b600073ffffffffffffffffffffffffffffffffffffffff168573ffffffffffffffffffffffffffffffffffffffff16146123af576001600360008773ffffffffffffffffffffffffffffffffffffffff1673ffffffffffffffffffffffffffffffffffffffff168152602001908152602001600020600082825401925050819055505b846002600086815260200190815260200160002060006101000a81548173ffffffffffffffffffffffffffffffffffffffff021916908373ffffffffffffffffffffffffffffffffffffffff160217905550838573ffffffffffffffffffffffffffffffffffffffff168273ffffffffffffffffffffffffffffffffffffffff167fddf252ad1be2c89b69c2b068fc378daa952ba7f163c4a11628f55a4df523b3ef60405160405180910390a4809150509392505050565b6124728383836126f0565b61252657600073ffffffffffffffffffffffffffffffffffffffff168373ffffffffffffffffffffffffffffffffffffffff16036124e757806040517f7e2732890000000000000000000000000000000000000000000000000000000081526004016124de9190612a6c565b60405180910390fd5b81816040517f177e802f00000000000000000000000000000000000000000000000000000000815260040161251d929190613432565b60405180910390fd5b505050565b80806125645750600073ffffffffffffffffffffffffffffffffffffffff168273ffffffffffffffffffffffffffffffffffffffff1614155b1561269857600061257484611ad2565b9050600073ffffffffffffffffffffffffffffffffffffffff168373ffffffffffffffffffffffffffffffffffffffff16141580156125df57508273ffffffffffffffffffffffffffffffffffffffff168173ffffffffffffffffffffffffffffffffffffffff1614155b80156125f257506125f08184611865565b155b1561263457826040517fa9fbf51f00000000000000000000000000000000000000000000000000000000815260040161262b91906129d6565b60405180910390fd5b811561269657838573ffffffffffffffffffffffffffffffffffffffff168273ffffffffffffffffffffffffffffffffffffffff167f8c5be1e5ebec7d5bd14f71427d1e84f3dd0314c0f7b2291e5b200ac8c7c3b92560405160405180910390a45b505b836004600085815260200190815260200160002060006101000a81548173ffffffffffffffffffffffffffffffffffffffff021916908373ffffffffffffffffffffffffffffffffffffffff16021790555050505050565b60008073ffffffffffffffffffffffffffffffffffffffff168373ffffffffffffffffffffffffffffffffffffffff16141580156127a857508273ffffffffffffffffffffffffffffffffffffffff168473ffffffffffffffffffffffffffffffffffffffff16148061276957506127688484611865565b5b806127a757508273ffffffffffffffffffffffffffffffffffffffff1661278f83611b5a565b73ffffffffffffffffffffffffffffffffffffffff16145b5b90509392505050565b6000604051905090565b600080fd5b600080fd5b60007fffffffff0000000000000000000000000000000000000000000000000000000082169050919050565b6127fa816127c5565b811461280557600080fd5b50565b600081359050612817816127f1565b92915050565b600060208284031215612833576128326127bb565b5b600061284184828501612808565b91505092915050565b60008115159050919050565b61285f8161284a565b82525050565b600060208201905061287a6000830184612856565b92915050565b600081519050919050565b600082825260208201905092915050565b60005b838110156128ba57808201518184015260208101905061289f565b60008484015250505050565b6000601f19601f8301169050919050565b60006128e282612880565b6128ec818561288b565b93506128fc81856020860161289c565b612905816128c6565b840191505092915050565b6000602082019050818103600083015261292a81846128d7565b905092915050565b6000819050919050565b61294581612932565b811461295057600080fd5b50565b6000813590506129628161293c565b92915050565b60006020828403121561297e5761297d6127bb565b5b600061298c84828501612953565b91505092915050565b600073ffffffffffffffffffffffffffffffffffffffff82169050919050565b60006129c082612995565b9050919050565b6129d0816129b5565b82525050565b60006020820190506129eb60008301846129c7565b92915050565b6129fa816129b5565b8114612a0557600080fd5b50565b600081359050612a17816129f1565b92915050565b60008060408385031215612a3457612a336127bb565b5b6000612a4285828601612a08565b9250506020612a5385828601612953565b9150509250929050565b612a6681612932565b82525050565b6000602082019050612a816000830184612a5d565b92915050565b600080fd5b7f4e487b7100000000000000000000000000000000000000000000000000000000600052604160045260246000fd5b612ac4826128c6565b810181811067ffffffffffffffff82111715612ae357612ae2612a8c565b5b80604052505050565b6000612af66127b1565b9050612b028282612abb565b919050565b600080fd5b600080fd5b600080fd5b600067ffffffffffffffff821115612b3157612b30612a8c565b5b612b3a826128c6565b9050602081019050919050565b82818337600083830152505050565b6000612b69612b6484612b16565b612aec565b905082815260208101848484011115612b8557612b84612b11565b5b612b90848285612b47565b509392505050565b600082601f830112612bad57612bac612b0c565b5b8135612bbd848260208601612b56565b91505092915050565b600060a08284031215612bdc57612bdb612a87565b5b612be660a0612aec565b9050600082013567ffffffffffffffff811115612c0657612c05612b07565b5b612c1284828501612b98565b600083015250602082013567ffffffffffffffff811115612c3657612c35612b07565b5b612c4284828501612b98565b602083015250604082013567ffffffffffffffff811115612c6657612c65612b07565b5b612c7284828501612b98565b604083015250606082013567ffffffffffffffff811115612c9657612c95612b07565b5b612ca284828501612b98565b606083015250608082013567ffffffffffffffff811115612cc657612cc5612b07565b5b612cd284828501612b98565b60808301525092915050565b600060208284031215612cf457612cf36127bb565b5b600082013567ffffffffffffffff811115612d1257612d116127c0565b5b612d1e84828501612bc6565b91505092915050565b600080600060608486031215612d4057612d3f6127bb565b5b6000612d4e86828701612a08565b9350506020612d5f86828701612a08565b9250506040612d7086828701612953565b9150509250925092565b600060208284031215612d9057612d8f6127bb565b5b6000612d9e84828501612a08565b91505092915050565b612db08161284a565b8114612dbb57600080fd5b50565b600081359050612dcd81612da7565b92915050565b60008060408385031215612dea57612de96127bb565b5b6000612df885828601612a08565b9250506020612e0985828601612dbe565b9150509250929050565b600067ffffffffffffffff821115612e2e57612e2d612a8c565b5b612e37826128c6565b9050602081019050919050565b6000612e57612e5284612e13565b612aec565b905082815260208101848484011115612e7357612e72612b11565b5b612e7e848285612b47565b509392505050565b600082601f830112612e9b57612e9a612b0c565b5b8135612eab848260208601612e44565b91505092915050565b60008060008060808587031215612ece57612ecd6127bb565b5b6000612edc87828801612a08565b9450506020612eed87828801612a08565b9350506040612efe87828801612953565b925050606085013567ffffffffffffffff811115612f1f57612f1e6127c0565b5b612f2b87828801612e86565b91505092959194509250565b600060a0820190508181036000830152612f5181886128d7565b90508181036020830152612f6581876128d7565b90508181036040830152612f7981866128d7565b90508181036060830152612f8d81856128d7565b90508181036080830152612fa181846128d7565b90509695505050505050565b60008060408385031215612fc457612fc36127bb565b5b6000612fd285828601612953565b9250506020612fe385828601612953565b9150509250929050565b60008060408385031215613004576130036127bb565b5b600061301285828601612a08565b925050602061302385828601612a08565b9150509250929050565b7f4e487b7100000000000000000000000000000000000000000000000000000000600052602260045260246000fd5b6000600282049050600182168061307457607f821691505b6020821081036130875761308661302d565b5b50919050565b60006060820190506130a260008301866129c7565b6130af60208301856129c7565b6130bc6040830184612a5d565b949350505050565b6000815190506130d381612da7565b92915050565b6000602082840312156130ef576130ee6127bb565b5b60006130fd848285016130c4565b91505092915050565b60008190508160005260206000209050919050565b60006020601f8301049050919050565b600082821b905092915050565b6000600883026131687fffffffffffffffffffffffffffffffffffffffffffffffffffffffffffffffff8261312b565b613172868361312b565b95508019841693508086168417925050509392505050565b6000819050919050565b60006131af6131aa6131a584612932565b61318a565b612932565b9050919050565b6000819050919050565b6131c983613194565b6131dd6131d5826131b6565b848454613138565b825550505050565b600090565b6131f26131e5565b6131fd8184846131c0565b505050565b5b81811015613221576132166000826131ea565b600181019050613203565b5050565b601f8211156132665761323781613106565b6132408461311b565b8101602085101561324f578190505b61326361325b8561311b565b830182613202565b50505b505050565b600082821c905092915050565b60006132896000198460080261326b565b1980831691505092915050565b60006132a28383613278565b9150826002028217905092915050565b6132bb82612880565b67ffffffffffffffff8111156132d4576132d3612a8c565b5b6132de825461305c565b6132e9828285613225565b600060209050601f83116001811461331c576000841561330a578287015190505b6133148582613296565b86555061337c565b601f19841661332a86613106565b60005b828110156133525784890151825560018201915060208501945060208101905061332d565b8683101561336f578489015161336b601f891682613278565b8355505b6001600288020188555050505b505050505050565b7f4e6f7420617574686f72697a6564000000000000000000000000000000000000600082015250565b60006133ba600e8361288b565b91506133c582613384565b602082019050919050565b600060208201905081810360008301526133e9816133ad565b9050919050565b6000815190506133ff8161293c565b92915050565b60006020828403121561341b5761341a6127bb565b5b6000613429848285016133f0565b91505092915050565b600060408201905061344760008301856129c7565b6134546020830184612a5d565b9392505050565b600081905092915050565b600061347182612880565b61347b818561345b565b935061348b81856020860161289c565b80840191505092915050565b60006134a38285613466565b91506134af8284613466565b91508190509392505050565b60006040820190506134d06000830185612a5d565b6134dd6020830184612a5d565b9392505050565b600081905092915050565b50565b60006134ff6000836134e4565b915061350a826134ef565b600082019050919050565b6000613520826134f2565b9150819050919050565b7f455448205472616e73666572206661696c656400000000000000000000000000600082015250565b600061356060138361288b565b915061356b8261352a565b602082019050919050565b6000602082019050818103600083015261358f81613553565b9050919050565b7f4e487b7100000000000000000000000000000000000000000000000000000000600052601160045260246000fd5b60006135d082612932565b91507fffffffffffffffffffffffffffffffffffffffffffffffffffffffffffffffff820361360257613601613596565b5b600182019050919050565b7f4e487b7100000000000000000000000000000000000000000000000000000000600052601260045260246000fd5b600081519050919050565b600082825260208201905092915050565b60006136638261363c565b61366d8185613647565b935061367d81856020860161289c565b613686816128c6565b840191505092915050565b60006080820190506136a660008301876129c7565b6136b360208301866129c7565b6136c06040830185612a5d565b81810360608301526136d28184613658565b905095945050505050565b6000815190506136ec816127f1565b92915050565b600060208284031215613708576137076127bb565b5b6000613716848285016136dd565b9150509291505056fea264697066735822122009c0deebaaa744266884b799c4b4ccd7fd38fd37adfd2ca83a6e000333495e0064736f6c63430008140033",
  "linkReferences": {},
  "deployedLinkReferences": {}
}