{
  "_format": "hh-sol-artifact-1",
  "contractName": "CardSBT",
  "sourceName": "contracts/CardSBT.sol",
  "abi": [
    {
      "inputs": [
        {
          "internalType": "address",
          "name": "_usdcToken",
          "type": "address"
        },
        {
          "internalType": "address",
          "name": "_treasury",
          "type": "address"
        },
        {
          "internalType": "uint256",
          "name": "_mintPriceUSDC",
          "type": "uint256"
        },
        {
          "internalType": "uint256",
          "name": "_mintPriceETH",
          "type": "uint256"
        },
        {
          "internalType": "uint256",
          "name": "_editPriceUSDC",
          "type": "uint256"
        },
        {
          "internalType": "uint256",
          "name": "_editPriceETH",
          "type": "uint256"
        }
      ],
      "stateMutability": "nonpayable",
      "type": "constructor"
    },
    {
      "inputs": [],
      "name": "AlreadyHasCard",
      "type": "error"
    },
    {
      "inputs": [
        {
          "internalType": "address",
          "name": "sender",
          "type": "address"
        },
        {
          "internalType": "uint256",
          "name": "tokenId",
          "type": "uint256"
        },
        {
          "internalType": "address",
          "name": "owner",
          "type": "address"
        }
      ],
      "name": "ERC721IncorrectOwner",
      "type": "error"
    },
    {
      "inputs": [
        {
          "internalType": "address",
          "name": "operator",
          "type": "address"
        },
        {
          "internalType": "uint256",
          "name": "tokenId",
          "type": "uint256"
        }
      ],
      "name": "ERC721InsufficientApproval",
      "type": "error"
    },
    {
      "inputs": [
        {
          "internalType": "address",
          "name": "approver",
          "type": "address"
        }
      ],
      "name": "ERC721InvalidApprover",
      "type": "error"
    },
    {
      "inputs": [
        {
          "internalType": "address",
          "name": "operator",
          "type": "address"
        }
      ],
      "name": "ERC721InvalidOperator",
      "type": "error"
    },
    {
      "inputs": [
        {
          "internalType": "address",
          "name": "owner",
          "type": "address"
        }
      ],
      "name": "ERC721InvalidOwner",
      "type": "error"
    },
    {
      "inputs": [
        {
          "internalType": "address",
          "name": "receiver",
          "type": "address"
        }
      ],
      "name": "ERC721InvalidReceiver",
      "type": "error"
    },
    {
      "inputs": [
        {
          "internalType": "address",
          "name": "sender",
          "type": "address"
        }
      ],
      "name": "ERC721InvalidSender",
      "type": "error"
    },
    {
      "inputs": [
        {
          "internalType": "uint256",
          "name": "tokenId",
          "type": "uint256"
        }
      ],
      "name": "ERC721NonexistentToken",
      "type": "error"
    },
    {
      "inputs": [],
      "name": "InsufficientPayment",
      "type": "error"
    },
    {
      "inputs": [],
      "name": "InvalidPayment",
      "type": "error"
    },
    {
      "inputs": [],
      "name": "InvalidTreasury",
      "type": "error"
    },
    {
      "inputs": [],
      "name": "MixedPayment",
      "type": "error"
    },
    {
      "inputs": [],
      "name": "NoCardFound",
      "type": "error"
    },
    {
      "inputs": [
        {
          "internalType": "address",
          "name": "owner",
          "type": "address"
        }
      ],
      "name": "OwnableInvalidOwner",
      "type": "error"
    },
    {
      "inputs": [
        {
          "internalType": "address",
          "name": "account",
          "type": "address"
        }
      ],
      "name": "OwnableUnauthorizedAccount",
      "type": "error"
    },
    {
      "inputs": [],
      "name": "ReentrancyGuardReentrantCall",
      "type": "error"
    },
    {
      "inputs": [
        {
          "internalType": "address",
          "name": "token",
          "type": "address"
        }
      ],
      "name": "SafeERC20FailedOperation",
      "type": "error"
    },
    {
      "inputs": [],
      "name": "Soulbound",
      "type": "error"
    },
    {
      "anonymous": false,
      "inputs": [
        {
          "indexed": true,
          "internalType": "address",
          "name": "owner",
          "type": "address"
        },
        {
          "indexed": true,
          "internalType": "address",
          "name": "approved",
          "type": "address"
        },
        {
          "indexed": true,
          "internalType": "uint256",
          "name": "tokenId",
          "type": "uint256"
        }
      ],
      "name": "Approval",
      "type": "event"
    },
    {
      "anonymous": false,
      "inputs": [
        {
          "indexed": true,
          "internalType": "address",
          "name": "owner",
          "type": "address"
        },
        {
          "indexed": true,
          "internalType": "address",
          "name": "operator",
          "type": "address"
        },
        {
          "indexed": false,
          "internalType": "bool",
          "name": "approved",
          "type": "bool"
        }
      ],
      "name": "ApprovalForAll",
      "type": "event"
    },
    {
      "anonymous": false,
      "inputs": [
        {
          "indexed": true,
          "internalType": "address",
          "name": "owner",
          "type": "address"
        },
        {
          "indexed": true,
          "internalType": "uint256",
          "name": "tokenId",
          "type": "uint256"
        },
        {
          "indexed": false,
          "internalType": "enum CardSBT.PaymentMethod",
          "name": "paymentMethod",
          "type": "uint8"
        }
      ],
      "name": "CardMinted",
      "type": "event"
    },
    {
      "anonymous": false,
      "inputs": [
        {
          "indexed": true,
          "internalType": "address",
          "name": "owner",
          "type": "address"
        },
        {
          "indexed": true,
          "internalType": "uint256",
          "name": "tokenId",
          "type": "uint256"
        },
        {
          "indexed": false,
          "internalType": "enum CardSBT.PaymentMethod",
          "name": "paymentMethod",
          "type": "uint8"
        }
      ],
      "name": "CardUpdated",
      "type": "event"
    },
    {
      "anonymous": false,
      "inputs": [
        {
          "indexed": true,
          "internalType": "address",
          "name": "token",
          "type": "address"
        },
        {
          "indexed": false,
          "internalType": "uint256",
          "name": "amount",
          "type": "uint256"
        }
      ],
      "name": "FundsWithdrawn",
      "type": "event"
    },
    {
      "anonymous": false,
      "inputs": [
        {
          "indexed": true,
          "internalType": "address",
          "name": "previousOwner",
          "type": "address"
        },
        {
          "indexed": true,
          "internalType": "address",
          "name": "newOwner",
          "type": "address"
        }
      ],
      "name": "OwnershipTransferred",
      "type": "event"
    },
    {
      "anonymous": false,
      "inputs": [
        {
          "indexed": false,
          "internalType": "uint256",
          "name": "mintPriceUSDC",
          "type": "uint256"
        },
        {
          "indexed": false,
          "internalType": "uint256",
          "name": "mintPriceETH",
          "type": "uint256"
        },
        {
          "indexed": false,
          "internalType": "uint256",
          "name": "editPriceUSDC",
          "type": "uint256"
        },
        {
          "indexed": false,
          "internalType": "uint256",
          "name": "editPriceETH",
          "type": "uint256"
        }
      ],
      "name": "PricingUpdated",
      "type": "event"
    },
    {
      "anonymous": false,
      "inputs": [
        {
          "indexed": true,
          "internalType": "address",
          "name": "from",
          "type": "address"
        },
        {
          "indexed": true,
          "internalType": "address",
          "name": "to",
          "type": "address"
        },
        {
          "indexed": true,
          "internalType": "uint256",
          "name": "tokenId",
          "type": "uint256"
        }
      ],
      "name": "Transfer",
      "type": "event"
    },
    {
      "anonymous": false,
      "inputs": [
        {
          "indexed": false,
          "internalType": "address",
          "name": "treasury",
          "type": "address"
        }
      ],
      "name": "TreasuryUpdated",
      "type": "event"
    },
    {
      "inputs": [
        {
          "internalType": "address",
          "name": "",
          "type": "address"
        },
        {
          "internalType": "uint256",
          "name": "",
          "type": "uint256"
        }
      ],
      "name": "approve",
      "outputs": [],
      "stateMutability": "nonpayable",
      "type": "function"
    },
    {
      "inputs": [
        {
          "internalType": "address",
          "name": "owner",
          "type": "address"
        }
      ],
      "name": "balanceOf",
      "outputs": [
        {
          "internalType": "uint256",
          "name": "",
          "type": "uint256"
        }
      ],
      "stateMutability": "view",
      "type": "function"
    },
    {
      "inputs": [
        {
          "internalType": "address",
          "name": "",
          "type": "address"
        }
      ],
      "name": "cardOf",
      "outputs": [
        {
          "internalType": "uint256",
          "name": "",
          "type": "uint256"
        }
      ],
      "stateMutability": "view",
      "type": "function"
    },
    {
      "inputs": [],
      "name": "editPriceETH",
      "outputs": [
        {
          "internalType": "uint256",
          "name": "",
          "type": "uint256"
        }
      ],
      "stateMutability": "view",
      "type": "function"
    },
    {
      "inputs": [],
      "name": "editPriceUSDC",
      "outputs": [
        {
          "internalType": "uint256",
          "name": "",
          "type": "uint256"
        }
      ],
      "stateMutability": "view",
      "type": "function"
    },
    {
      "inputs": [
        {
          "internalType": "uint256",
          "name": "tokenId",
          "type": "uint256"
        }
      ],
      "name": "getApproved",
      "outputs": [
        {
          "internalType": "address",
          "name": "",
          "type": "address"
        }
      ],
      "stateMutability": "view",
      "type": "function"
    },
    {
      "inputs": [
        {
          "internalType": "address",
          "name": "owner",
          "type": "address"
        },
        {
          "internalType": "address",
          "name": "operator",
          "type": "address"
        }
      ],
      "name": "isApprovedForAll",
      "outputs": [
        {
          "internalType": "bool",
          "name": "",
          "type": "bool"
        }
      ],
      "stateMutability": "view",
      "type": "function"
    },
    {
      "inputs": [
        {
          "components": [
            {
              "internalType": "string",
              "name": "displayName",
              "type": "string"
            },
            {
              "internalType": "string",
              "name": "avatarUrl",
              "type": "string"
            },
            {
              "internalType": "string",
              "name": "bio",
              "type": "string"
            },
            {
              "internalType": "string",
              "name": "socials",
              "type": "string"
            },
            {
              "internalType": "string",
              "name": "websites",
              "type": "string"
            }
          ],
          "internalType": "struct CardSBT.Profile",
          "name": "_profile",
          "type": "tuple"
        },
        {
          "internalType": "enum CardSBT.PaymentMethod",
          "name": "_method",
          "type": "uint8"
        }
      ],
      "name": "mintCard",
      "outputs": [],
      "stateMutability": "payable",
      "type": "function"
    },
    {
      "inputs": [],
      "name": "mintPriceETH",
      "outputs": [
        {
          "internalType": "uint256",
          "name": "",
          "type": "uint256"
        }
      ],
      "stateMutability": "view",
      "type": "function"
    },
    {
      "inputs": [],
      "name": "mintPriceUSDC",
      "outputs": [
        {
          "internalType": "uint256",
          "name": "",
          "type": "uint256"
        }
      ],
      "stateMutability": "view",
      "type": "function"
    },
    {
      "inputs": [],
      "name": "name",
      "outputs": [
        {
          "internalType": "string",
          "name": "",
          "type": "string"
        }
      ],
      "stateMutability": "view",
      "type": "function"
    },
    {
      "inputs": [],
      "name": "owner",
      "outputs": [
        {
          "internalType": "address",
          "name": "",
          "type": "address"
        }
      ],
      "stateMutability": "view",
      "type": "function"
    },
    {
      "inputs": [
        {
          "internalType": "uint256",
          "name": "tokenId",
          "type": "uint256"
        }
      ],
      "name": "ownerOf",
      "outputs": [
        {
          "internalType": "address",
          "name": "",
          "type": "address"
        }
      ],
      "stateMutability": "view",
      "type": "function"
    },
    {
      "inputs": [
        {
          "internalType": "uint256",
          "name": "",
          "type": "uint256"
        }
      ],
      "name": "profiles",
      "outputs": [
        {
          "internalType": "string",
          "name": "displayName",
          "type": "string"
        },
        {
          "internalType": "string",
          "name": "avatarUrl",
          "type": "string"
        },
        {
          "internalType": "string",
          "name": "bio",
          "type": "string"
        },
        {
          "internalType": "string",
          "name": "socials",
          "type": "string"
        },
        {
          "internalType": "string",
          "name": "websites",
          "type": "string"
        }
      ],
      "stateMutability": "view",
      "type": "function"
    },
    {
      "inputs": [],
      "name": "renounceOwnership",
      "outputs": [],
      "stateMutability": "nonpayable",
      "type": "function"
    },
    {
      "inputs": [
        {
          "internalType": "address",
          "name": "from",
          "type": "address"
        },
        {
          "internalType": "address",
          "name": "to",
          "type": "address"
        },
        {
          "internalType": "uint256",
          "name": "tokenId",
          "type": "uint256"
        }
      ],
      "name": "safeTransferFrom",
      "outputs": [],
      "stateMutability": "nonpayable",
      "type": "function"
    },
    {
      "inputs": [
        {
          "internalType": "address",
          "name": "",
          "type": "address"
        },
        {
          "internalType": "address",
          "name": "",
          "type": "address"
        },
        {
          "internalType": "uint256",
          "name": "",
          "type": "uint256"
        },
        {
          "internalType": "bytes",
          "name": "",
          "type": "bytes"
        }
      ],
      "name": "safeTransferFrom",
      "outputs": [],
      "stateMutability": "nonpayable",
      "type": "function"
    },
    {
      "inputs": [
        {
          "internalType": "address",
          "name": "",
          "type": "address"
        },
        {
          "internalType": "bool",
          "name": "",
          "type": "bool"
        }
      ],
      "name": "setApprovalForAll",
      "outputs": [],
      "stateMutability": "nonpayable",
      "type": "function"
    },
    {
      "inputs": [
        {
          "internalType": "uint256",
          "name": "_mintPriceUSDC",
          "type": "uint256"
        },
        {
          "internalType": "uint256",
          "name": "_mintPriceETH",
          "type": "uint256"
        },
        {
          "internalType": "uint256",
          "name": "_editPriceUSDC",
          "type": "uint256"
        },
        {
          "internalType": "uint256",
          "name": "_editPriceETH",
          "type": "uint256"
        }
      ],
      "name": "setPricing",
      "outputs": [],
      "stateMutability": "nonpayable",
      "type": "function"
    },
    {
      "inputs": [
        {
          "internalType": "address",
          "name": "_treasury",
          "type": "address"
        }
      ],
      "name": "setTreasury",
      "outputs": [],
      "stateMutability": "nonpayable",
      "type": "function"
    },
    {
      "inputs": [
        {
          "internalType": "bytes4",
          "name": "interfaceId",
          "type": "bytes4"
        }
      ],
      "name": "supportsInterface",
      "outputs": [
        {
          "internalType": "bool",
          "name": "",
          "type": "bool"
        }
      ],
      "stateMutability": "view",
      "type": "function"
    },
    {
      "inputs": [],
      "name": "symbol",
      "outputs": [
        {
          "internalType": "string",
          "name": "",
          "type": "string"
        }
      ],
      "stateMutability": "view",
      "type": "function"
    },
    {
      "inputs": [
        {
          "internalType": "uint256",
          "name": "tokenId",
          "type": "uint256"
        }
      ],
      "name": "tokenURI",
      "outputs": [
        {
          "internalType": "string",
          "name": "",
          "type": "string"
        }
      ],
      "stateMutability": "view",
      "type": "function"
    },
    {
      "inputs": [],
      "name": "totalSupply",
      "outputs": [
        {
          "internalType": "uint256",
          "name": "",
          "type": "uint256"
        }
      ],
      "stateMutability": "view",
      "type": "function"
    },
    {
      "inputs": [
        {
          "internalType": "address",
          "name": "",
          "type": "address"
        },
        {
          "internalType": "address",
          "name": "",
          "type": "address"
        },
        {
          "internalType": "uint256",
          "name": "",
          "type": "uint256"
        }
      ],
      "name": "transferFrom",
      "outputs": [],
      "stateMutability": "nonpayable",
      "type": "function"
    },
    {
      "inputs": [
        {
          "internalType": "address",
          "name": "newOwner",
          "type": "address"
        }
      ],
      "name": "transferOwnership",
      "outputs": [],
      "stateMutability": "nonpayable",
      "type": "function"
    },
    {
      "inputs": [],
      "name": "treasury",
      "outputs": [
        {
          "internalType": "address",
          "name": "",
          "type": "address"
        }
      ],
      "stateMutability": "view",
      "type": "function"
    },
    {
      "inputs": [
        {
          "components": [
            {
              "internalType": "string",
              "name": "displayName",
              "type": "string"
            },
            {
              "internalType": "string",
              "name": "avatarUrl",
              "type": "string"
            },
            {
              "internalType": "string",
              "name": "bio",
              "type": "string"
            },
            {
              "internalType": "string",
              "name": "socials",
              "type": "string"
            },
            {
              "internalType": "string",
              "name": "websites",
              "type": "string"
            }
          ],
          "internalType": "struct CardSBT.Profile",
          "name": "_profile",
          "type": "tuple"
        },
        {
          "internalType": "enum CardSBT.PaymentMethod",
          "name": "_method",
          "type": "uint8"
        }
      ],
      "name": "updateCard",
      "outputs": [],
      "stateMutability": "payable",
      "type": "function"
    },
    {
      "inputs": [],
      "name": "usdcToken",
      "outputs": [
        {
          "internalType": "contract IERC20",
          "name": "",
          "type": "address"
        }
      ],
      "stateMutability": "view",
      "type": "function"
    },
    {
      "inputs": [],
      "name": "withdraw",
      "outputs": [],
      "stateMutability": "nonpayable",
      "type": "function"
    },
    {
      "stateMutability": "payable",
      "type": "receive"
    }
  ],
  "bytecode": "0x60a06040523480156200001157600080fd5b5060405162004052380380620040528339818101604052810190620000379190620003c8565b336040518060400160405280601481526020017f4d696e694170702050726f66696c6520436172640000000000000000000000008152506040518060400160405280600481526020017f43415244000000000000000000000000000000000000000000000000000000008152508160009081620000b59190620006d4565b508060019081620000c79190620006d4565b505050600073ffffffffffffffffffffffffffffffffffffffff168173ffffffffffffffffffffffffffffffffffffffff16036200013f5760006040517f1e4fbdf7000000000000000000000000000000000000000000000000000000008152600401620001369190620007cc565b60405180910390fd5b62000150816200025d60201b60201c565b506001600781905550600073ffffffffffffffffffffffffffffffffffffffff168573ffffffffffffffffffffffffffffffffffffffff1603620001c0576040517f14bcf5c800000000000000000000000000000000000000000000000000000000815260040160405180910390fd5b8573ffffffffffffffffffffffffffffffffffffffff1660808173ffffffffffffffffffffffffffffffffffffffff168152505084600960006101000a81548173ffffffffffffffffffffffffffffffffffffffff021916908373ffffffffffffffffffffffffffffffffffffffff16021790555083600a8190555082600b8190555081600c8190555080600d81905550505050505050620007e9565b6000600660009054906101000a900473ffffffffffffffffffffffffffffffffffffffff16905081600660006101000a81548173ffffffffffffffffffffffffffffffffffffffff021916908373ffffffffffffffffffffffffffffffffffffffff1602179055508173ffffffffffffffffffffffffffffffffffffffff168173ffffffffffffffffffffffffffffffffffffffff167f8be0079c531659141344cd1fd0a4f28419497f9722a3daafe3b4186f6b6457e060405160405180910390a35050565b600080fd5b600073ffffffffffffffffffffffffffffffffffffffff82169050919050565b6000620003558262000328565b9050919050565b620003678162000348565b81146200037357600080fd5b50565b60008151905062000387816200035c565b92915050565b6000819050919050565b620003a2816200038d565b8114620003ae57600080fd5b50565b600081519050620003c28162000397565b92915050565b60008060008060008060c08789031215620003e857620003e762000323565b5b6000620003f889828a0162000376565b96505060206200040b89828a0162000376565b95505060406200041e89828a01620003b1565b94505060606200043189828a01620003b1565b93505060806200044489828a01620003b1565b92505060a06200045789828a01620003b1565b9150509295509295509295565b600081519050919050565b7f4e487b7100000000000000000000000000000000000000000000000000000000600052604160045260246000fd5b7f4e487b7100000000000000000000000000000000000000000000000000000000600052602260045260246000fd5b60006002820490506001821680620004e657607f821691505b602082108103620004fc57620004fb6200049e565b5b50919050565b60008190508160005260206000209050919050565b60006020601f8301049050919050565b600082821b905092915050565b600060088302620005667fffffffffffffffffffffffffffffffffffffffffffffffffffffffffffffffff8262000527565b62000572868362000527565b95508019841693508086168417925050509392505050565b6000819050919050565b6000620005b5620005af620005a9846200038d565b6200058a565b6200038d565b9050919050565b6000819050919050565b620005d18362000594565b620005e9620005e082620005bc565b84845462000534565b825550505050565b600090565b62000600620005f1565b6200060d818484620005c6565b505050565b5b81811015620006355762000629600082620005f6565b60018101905062000613565b5050565b601f82111562000684576200064e8162000502565b620006598462000517565b8101602085101562000669578190505b62000681620006788562000517565b83018262000612565b50505b505050565b600082821c905092915050565b6000620006a96000198460080262000689565b1980831691505092915050565b6000620006c4838362000696565b9150826002028217905092915050565b620006df8262000464565b67ffffffffffffffff811115620006fb57620006fa6200046f565b5b620007078254620004cd565b6200071482828562000639565b600060209050601f8311600181146200074c576000841562000737578287015190505b620007438582620006b6565b865550620007b3565b601f1984166200075c8662000502565b60005b8281101562000786578489015182556001820191506020850194506020810190506200075f565b86831015620007a65784890151620007a2601f89168262000696565b8355505b6001600288020188555050505b505050505050565b620007c68162000348565b82525050565b6000602082019050620007e36000830184620007bb565b92915050565b60805161383162000821600039600081816108e901528181610a8401528181610b5001528181610b960152611a7e01526138316000f3fe6080604052600436106101d15760003560e01c806370a08231116100f7578063c36fe3d611610095578063f0f4426011610064578063f0f442601461068c578063f112bf7c146106b5578063f2fde38b146106d1578063f42f35de146106fa576101d8565b8063c36fe3d6146105a6578063c87b56dd146105e7578063d0c7523614610624578063e985e9c51461064f576101d8565b80638f9a8837116100d15780638f9a8837146104fe57806395d89b4114610529578063a22cb46514610554578063b88d4fde1461057d576101d8565b806370a082311461047f578063715018a6146104bc5780638da5cb5b146104d3576101d8565b80633ccfd60b1161016f5780635f8533381161013e5780635f853338146103d057806361d027b3146103fb5780636352211e1461042657806366cfdcf414610463576101d8565b80633ccfd60b1461032a57806342842e0e1461034157806348e748a01461036a5780635deb52cb146103a7576101d8565b8063095ea7b3116101ab578063095ea7b31461028257806311eac855146102ab57806318160ddd146102d657806323b872dd14610301576101d8565b806301ffc9a7146101dd57806306fdde031461021a578063081812fc14610245576101d8565b366101d857005b600080fd5b3480156101e957600080fd5b5061020460048036038101906101ff919061282a565b610725565b6040516102119190612872565b60405180910390f35b34801561022657600080fd5b5061022f610807565b60405161023c919061291d565b60405180910390f35b34801561025157600080fd5b5061026c60048036038101906102679190612975565b610899565b60405161027991906129e3565b60405180910390f35b34801561028e57600080fd5b506102a960048036038101906102a49190612a2a565b6108b5565b005b3480156102b757600080fd5b506102c06108e7565b6040516102cd9190612ac9565b60405180910390f35b3480156102e257600080fd5b506102eb61090b565b6040516102f89190612af3565b60405180910390f35b34801561030d57600080fd5b5061032860048036038101906103239190612b0e565b610911565b005b34801561033657600080fd5b5061033f610943565b005b34801561034d57600080fd5b5061036860048036038101906103639190612b0e565b610c0f565b005b34801561037657600080fd5b50610391600480360381019061038c9190612b61565b610c2f565b60405161039e9190612af3565b60405180910390f35b3480156103b357600080fd5b506103ce60048036038101906103c99190612b8e565b610c47565b005b3480156103dc57600080fd5b506103e5610cae565b6040516103f29190612af3565b60405180910390f35b34801561040757600080fd5b50610410610cb4565b60405161041d91906129e3565b60405180910390f35b34801561043257600080fd5b5061044d60048036038101906104489190612975565b610cda565b60405161045a91906129e3565b60405180910390f35b61047d60048036038101906104789190612e71565b610cec565b005b34801561048b57600080fd5b506104a660048036038101906104a19190612b61565b610e62565b6040516104b39190612af3565b60405180910390f35b3480156104c857600080fd5b506104d1610f1c565b005b3480156104df57600080fd5b506104e8610f30565b6040516104f591906129e3565b60405180910390f35b34801561050a57600080fd5b50610513610f5a565b6040516105209190612af3565b60405180910390f35b34801561053557600080fd5b5061053e610f60565b60405161054b919061291d565b60405180910390f35b34801561056057600080fd5b5061057b60048036038101906105769190612ef9565b610ff2565b005b34801561058957600080fd5b506105a4600480360381019061059f9190612fda565b611024565b005b3480156105b257600080fd5b506105cd60048036038101906105c89190612975565b611056565b6040516105de95949392919061305d565b60405180910390f35b3480156105f357600080fd5b5061060e60048036038101906106099190612975565b611334565b60405161061b919061291d565b60405180910390f35b34801561063057600080fd5b5061063961139d565b6040516106469190612af3565b60405180910390f35b34801561065b57600080fd5b50610676600480360381019061067191906130d3565b6113a3565b6040516106839190612872565b60405180910390f35b34801561069857600080fd5b506106b360048036038101906106ae9190612b61565b611437565b005b6106cf60048036038101906106ca9190612e71565b611520565b005b3480156106dd57600080fd5b506106f860048036038101906106f39190612b61565b6116fe565b005b34801561070657600080fd5b5061070f611784565b60405161071c9190612af3565b60405180910390f35b60007f80ac58cd000000000000000000000000000000000000000000000000000000007bffffffffffffffffffffffffffffffffffffffffffffffffffffffff1916827bffffffffffffffffffffffffffffffffffffffffffffffffffffffff191614806107f057507f5b5e139f000000000000000000000000000000000000000000000000000000007bffffffffffffffffffffffffffffffffffffffffffffffffffffffff1916827bffffffffffffffffffffffffffffffffffffffffffffffffffffffff1916145b8061080057506107ff8261178a565b5b9050919050565b60606000805461081690613142565b80601f016020809104026020016040519081016040528092919081815260200182805461084290613142565b801561088f5780601f106108645761010080835404028352916020019161088f565b820191906000526020600020905b81548152906001019060200180831161087257829003601f168201915b5050505050905090565b60006108a4826117f4565b506108ae8261187c565b9050919050565b6040517fa4420a9500000000000000000000000000000000000000000000000000000000815260040160405180910390fd5b7f000000000000000000000000000000000000000000000000000000000000000081565b60085481565b6040517fa4420a9500000000000000000000000000000000000000000000000000000000815260040160405180910390fd5b61094b6118b9565b610953611940565b60004790506000811115610a80576000600960009054906101000a900473ffffffffffffffffffffffffffffffffffffffff1673ffffffffffffffffffffffffffffffffffffffff16826040516109a9906131a4565b60006040518083038185875af1925050503d80600081146109e6576040519150601f19603f3d011682016040523d82523d6000602084013e6109eb565b606091505b5050905080610a2f576040517f08c379a0000000000000000000000000000000000000000000000000000000008152600401610a2690613205565b60405180910390fd5b600073ffffffffffffffffffffffffffffffffffffffff167feaff4b37086828766ad3268786972c0cd24259d4c87a80f9d3963a3c3d999b0d83604051610a769190612af3565b60405180910390a2505b60007f000000000000000000000000000000000000000000000000000000000000000073ffffffffffffffffffffffffffffffffffffffff166370a08231306040518263ffffffff1660e01b8152600401610adb91906129e3565b602060405180830381865afa158015610af8573d6000803e3d6000fd5b505050506040513d601f19601f82011682018060405250810190610b1c919061323a565b90506000811115610c0357610b94600960009054906101000a900473ffffffffffffffffffffffffffffffffffffffff16827f000000000000000000000000000000000000000000000000000000000000000073ffffffffffffffffffffffffffffffffffffffff166119869092919063ffffffff16565b7f000000000000000000000000000000000000000000000000000000000000000073ffffffffffffffffffffffffffffffffffffffff167feaff4b37086828766ad3268786972c0cd24259d4c87a80f9d3963a3c3d999b0d82604051610bfa9190612af3565b60405180910390a25b5050610c0d611a05565b565b610c2a83838360405180602001604052806000815250611024565b505050565b600f6020528060005260406000206000915090505481565b610c4f6118b9565b83600a8190555082600b8190555081600c8190555080600d819055507f10391582be13a09a314521d7735c10a4c30864aa5ae7191a62b6d443d723fd3884848484604051610ca09493929190613267565b60405180910390a150505050565b600a5481565b600960009054906101000a900473ffffffffffffffffffffffffffffffffffffffff1681565b6000610ce5826117f4565b9050919050565b610cf4611940565b6000600f60003373ffffffffffffffffffffffffffffffffffffffff1673ffffffffffffffffffffffffffffffffffffffff16815260200190815260200160002054905060008103610d72576040517f832ba8b000000000000000000000000000000000000000000000000000000000815260040160405180910390fd5b610d8182600c54600d54611a0f565b82600e60008381526020019081526020016000206000820151816000019081610daa919061344e565b506020820151816001019081610dc0919061344e565b506040820151816002019081610dd6919061344e565b506060820151816003019081610dec919061344e565b506080820151816004019081610e02919061344e565b50905050803373ffffffffffffffffffffffffffffffffffffffff167fb9f91e41806ec930fcc990da250dff4d16d62924fb0e0f01bf36fee1639967a684604051610e4d9190613597565b60405180910390a350610e5e611a05565b5050565b60008073ffffffffffffffffffffffffffffffffffffffff168273ffffffffffffffffffffffffffffffffffffffff1603610ed55760006040517f89c62b64000000000000000000000000000000000000000000000000000000008152600401610ecc91906129e3565b60405180910390fd5b600360008373ffffffffffffffffffffffffffffffffffffffff1673ffffffffffffffffffffffffffffffffffffffff168152602001908152602001600020549050919050565b610f246118b9565b610f2e6000611b07565b565b6000600660009054906101000a900473ffffffffffffffffffffffffffffffffffffffff16905090565b600b5481565b606060018054610f6f90613142565b80601f0160208091040260200160405190810160405280929190818152602001828054610f9b90613142565b8015610fe85780601f10610fbd57610100808354040283529160200191610fe8565b820191906000526020600020905b815481529060010190602001808311610fcb57829003601f168201915b5050505050905090565b6040517fa4420a9500000000000000000000000000000000000000000000000000000000815260040160405180910390fd5b6040517fa4420a9500000000000000000000000000000000000000000000000000000000815260040160405180910390fd5b600e60205280600052604060002060009150905080600001805461107990613142565b80601f01602080910402602001604051908101604052809291908181526020018280546110a590613142565b80156110f25780601f106110c7576101008083540402835291602001916110f2565b820191906000526020600020905b8154815290600101906020018083116110d557829003601f168201915b50505050509080600101805461110790613142565b80601f016020809104026020016040519081016040528092919081815260200182805461113390613142565b80156111805780601f1061115557610100808354040283529160200191611180565b820191906000526020600020905b81548152906001019060200180831161116357829003601f168201915b50505050509080600201805461119590613142565b80601f01602080910402602001604051908101604052809291908181526020018280546111c190613142565b801561120e5780601f106111e35761010080835404028352916020019161120e565b820191906000526020600020905b8154815290600101906020018083116111f157829003601f168201915b50505050509080600301805461122390613142565b80601f016020809104026020016040519081016040528092919081815260200182805461124f90613142565b801561129c5780601f106112715761010080835404028352916020019161129c565b820191906000526020600020905b81548152906001019060200180831161127f57829003601f168201915b5050505050908060040180546112b190613142565b80601f01602080910402602001604051908101604052809291908181526020018280546112dd90613142565b801561132a5780601f106112ff5761010080835404028352916020019161132a565b820191906000526020600020905b81548152906001019060200180831161130d57829003601f168201915b5050505050905085565b606061133f826117f4565b50600061134a611bcd565b9050600081511161136a5760405180602001604052806000815250611395565b8061137484611be4565b6040516020016113859291906135ee565b6040516020818303038152906040525b915050919050565b600d5481565b6000600560008473ffffffffffffffffffffffffffffffffffffffff1673ffffffffffffffffffffffffffffffffffffffff16815260200190815260200160002060008373ffffffffffffffffffffffffffffffffffffffff1673ffffffffffffffffffffffffffffffffffffffff16815260200190815260200160002060009054906101000a900460ff16905092915050565b61143f6118b9565b600073ffffffffffffffffffffffffffffffffffffffff168173ffffffffffffffffffffffffffffffffffffffff16036114a5576040517f14bcf5c800000000000000000000000000000000000000000000000000000000815260040160405180910390fd5b80600960006101000a81548173ffffffffffffffffffffffffffffffffffffffff021916908373ffffffffffffffffffffffffffffffffffffffff1602179055507f7dae230f18360d76a040c81f050aa14eb9d6dc7901b20fc5d855e2a20fe814d18160405161151591906129e3565b60405180910390a150565b611528611940565b6000600f60003373ffffffffffffffffffffffffffffffffffffffff1673ffffffffffffffffffffffffffffffffffffffff16815260200190815260200160002054146115a1576040517f3222ee6100000000000000000000000000000000000000000000000000000000815260040160405180910390fd5b6115b081600a54600b54611a0f565b600860008154809291906115c390613641565b91905055506000600854905082600e600083815260200190815260200160002060008201518160000190816115f8919061344e565b50602082015181600101908161160e919061344e565b506040820151816002019081611624919061344e565b50606082015181600301908161163a919061344e565b506080820151816004019081611650919061344e565b5090505080600f60003373ffffffffffffffffffffffffffffffffffffffff1673ffffffffffffffffffffffffffffffffffffffff168152602001908152602001600020819055506116a23382611cb2565b803373ffffffffffffffffffffffffffffffffffffffff167f140538f7003346d4628961ef82b7128021c494a8f1881ca2a8f24d8e743a4f05846040516116e99190613597565b60405180910390a3506116fa611a05565b5050565b6117066118b9565b600073ffffffffffffffffffffffffffffffffffffffff168173ffffffffffffffffffffffffffffffffffffffff16036117785760006040517f1e4fbdf700000000000000000000000000000000000000000000000000000000815260040161176f91906129e3565b60405180910390fd5b61178181611b07565b50565b600c5481565b60007f01ffc9a7000000000000000000000000000000000000000000000000000000007bffffffffffffffffffffffffffffffffffffffffffffffffffffffff1916827bffffffffffffffffffffffffffffffffffffffffffffffffffffffff1916149050919050565b60008061180083611cd0565b9050600073ffffffffffffffffffffffffffffffffffffffff168173ffffffffffffffffffffffffffffffffffffffff160361187357826040517f7e27328900000000000000000000000000000000000000000000000000000000815260040161186a9190612af3565b60405180910390fd5b80915050919050565b60006004600083815260200190815260200160002060009054906101000a900473ffffffffffffffffffffffffffffffffffffffff169050919050565b6118c1611d0d565b73ffffffffffffffffffffffffffffffffffffffff166118df610f30565b73ffffffffffffffffffffffffffffffffffffffff161461193e57611902611d0d565b6040517f118cdaa700000000000000000000000000000000000000000000000000000000815260040161193591906129e3565b60405180910390fd5b565b60026007540361197c576040517f3ee5aeb500000000000000000000000000000000000000000000000000000000815260040160405180910390fd5b6002600781905550565b611a00838473ffffffffffffffffffffffffffffffffffffffff1663a9059cbb85856040516024016119b9929190613689565b604051602081830303815290604052915060e01b6020820180517bffffffffffffffffffffffffffffffffffffffffffffffffffffffff8381831617835250505050611d15565b505050565b6001600781905550565b60006001811115611a2357611a22613520565b5b836001811115611a3657611a35613520565b5b03611ac8576000341115611a76576040517f2cbefb2f00000000000000000000000000000000000000000000000000000000815260040160405180910390fd5b611ac33330847f000000000000000000000000000000000000000000000000000000000000000073ffffffffffffffffffffffffffffffffffffffff16611db7909392919063ffffffff16565b611b02565b803414611b01576040517fcd1c886700000000000000000000000000000000000000000000000000000000815260040160405180910390fd5b5b505050565b6000600660009054906101000a900473ffffffffffffffffffffffffffffffffffffffff16905081600660006101000a81548173ffffffffffffffffffffffffffffffffffffffff021916908373ffffffffffffffffffffffffffffffffffffffff1602179055508173ffffffffffffffffffffffffffffffffffffffff168173ffffffffffffffffffffffffffffffffffffffff167f8be0079c531659141344cd1fd0a4f28419497f9722a3daafe3b4186f6b6457e060405160405180910390a35050565b606060405180602001604052806000815250905090565b606060006001611bf384611e39565b01905060008167ffffffffffffffff811115611c1257611c11612bfa565b5b6040519080825280601f01601f191660200182016040528015611c445781602001600182028036833780820191505090505b509050600082602083010190505b600115611ca7578080600190039150507f3031323334353637383961626364656600000000000000000000000000000000600a86061a8153600a8581611c9b57611c9a6136b2565b5b04945060008503611c52575b819350505050919050565b611ccc828260405180602001604052806000815250611f8c565b5050565b60006002600083815260200190815260200160002060009054906101000a900473ffffffffffffffffffffffffffffffffffffffff169050919050565b600033905090565b600080602060008451602086016000885af180611d38576040513d6000823e3d81fd5b3d925060005191505060008214611d53576001811415611d6f565b60008473ffffffffffffffffffffffffffffffffffffffff163b145b15611db157836040517f5274afe7000000000000000000000000000000000000000000000000000000008152600401611da891906129e3565b60405180910390fd5b50505050565b611e33848573ffffffffffffffffffffffffffffffffffffffff166323b872dd868686604051602401611dec939291906136e1565b604051602081830303815290604052915060e01b6020820180517bffffffffffffffffffffffffffffffffffffffffffffffffffffffff8381831617835250505050611d15565b50505050565b600080600090507a184f03e93ff9f4daa797ed6e38ed64bf6a1f0100000000000000008310611e97577a184f03e93ff9f4daa797ed6e38ed64bf6a1f0100000000000000008381611e8d57611e8c6136b2565b5b0492506040810190505b6d04ee2d6d415b85acef81000000008310611ed4576d04ee2d6d415b85acef81000000008381611eca57611ec96136b2565b5b0492506020810190505b662386f26fc100008310611f0357662386f26fc100008381611ef957611ef86136b2565b5b0492506010810190505b6305f5e1008310611f2c576305f5e1008381611f2257611f216136b2565b5b0492506008810190505b6127108310611f51576127108381611f4757611f466136b2565b5b0492506004810190505b60648310611f745760648381611f6a57611f696136b2565b5b0492506002810190505b600a8310611f83576001810190505b80915050919050565b611f968383611fb0565b611fab611fa1611d0d565b60008585856120a9565b505050565b600073ffffffffffffffffffffffffffffffffffffffff168273ffffffffffffffffffffffffffffffffffffffff16036120225760006040517f64a0ae9200000000000000000000000000000000000000000000000000000000815260040161201991906129e3565b60405180910390fd5b60006120308383600061225a565b9050600073ffffffffffffffffffffffffffffffffffffffff168173ffffffffffffffffffffffffffffffffffffffff16146120a45760006040517f73c6ac6e00000000000000000000000000000000000000000000000000000000815260040161209b91906129e3565b60405180910390fd5b505050565b60008373ffffffffffffffffffffffffffffffffffffffff163b1115612253578273ffffffffffffffffffffffffffffffffffffffff1663150b7a02868685856040518563ffffffff1660e01b8152600401612108949392919061376d565b6020604051808303816000875af192505050801561214457506040513d601f19601f8201168201806040525081019061214191906137ce565b60015b6121c8573d8060008114612174576040519150601f19603f3d011682016040523d82523d6000602084013e612179565b606091505b5060008151036121c057836040517f64a0ae920000000000000000000000000000000000000000000000000000000081526004016121b791906129e3565b60405180910390fd5b805160208201fd5b63150b7a0260e01b7bffffffffffffffffffffffffffffffffffffffffffffffffffffffff1916817bffffffffffffffffffffffffffffffffffffffffffffffffffffffff19161461225157836040517f64a0ae9200000000000000000000000000000000000000000000000000000000815260040161224891906129e3565b60405180910390fd5b505b5050505050565b60008061226684611cd0565b9050600073ffffffffffffffffffffffffffffffffffffffff168373ffffffffffffffffffffffffffffffffffffffff16146122a8576122a7818486612474565b5b600073ffffffffffffffffffffffffffffffffffffffff168173ffffffffffffffffffffffffffffffffffffffff1614612339576122ea600085600080612538565b6001600360008373ffffffffffffffffffffffffffffffffffffffff1673ffffffffffffffffffffffffffffffffffffffff168152602001908152602001600020600082825403925050819055505b600073ffffffffffffffffffffffffffffffffffffffff168573ffffffffffffffffffffffffffffffffffffffff16146123bc576001600360008773ffffffffffffffffffffffffffffffffffffffff1673ffffffffffffffffffffffffffffffffffffffff168152602001908152602001600020600082825401925050819055505b846002600086815260200190815260200160002060006101000a81548173ffffffffffffffffffffffffffffffffffffffff021916908373ffffffffffffffffffffffffffffffffffffffff160217905550838573ffffffffffffffffffffffffffffffffffffffff168273ffffffffffffffffffffffffffffffffffffffff167fddf252ad1be2c89b69c2b068fc378daa952ba7f163c4a11628f55a4df523b3ef60405160405180910390a4809150509392505050565b61247f8383836126fd565b61253357600073ffffffffffffffffffffffffffffffffffffffff168373ffffffffffffffffffffffffffffffffffffffff16036124f457806040517f7e2732890000000000000000000000000000000000000000000000000000000081526004016124eb9190612af3565b60405180910390fd5b81816040517f177e802f00000000000000000000000000000000000000000000000000000000815260040161252a929190613689565b60405180910390fd5b505050565b80806125715750600073ffffffffffffffffffffffffffffffffffffffff168273ffffffffffffffffffffffffffffffffffffffff1614155b156126a5576000612581846117f4565b9050600073ffffffffffffffffffffffffffffffffffffffff168373ffffffffffffffffffffffffffffffffffffffff16141580156125ec57508273ffffffffffffffffffffffffffffffffffffffff168173ffffffffffffffffffffffffffffffffffffffff1614155b80156125ff57506125fd81846113a3565b155b1561264157826040517fa9fbf51f00000000000000000000000000000000000000000000000000000000815260040161263891906129e3565b60405180910390fd5b81156126a357838573ffffffffffffffffffffffffffffffffffffffff168273ffffffffffffffffffffffffffffffffffffffff167f8c5be1e5ebec7d5bd14f71427d1e84f3dd0314c0f7b2291e5b200ac8c7c3b92560405160405180910390a45b505b836004600085815260200190815260200160002060006101000a81548173ffffffffffffffffffffffffffffffffffffffff021916908373ffffffffffffffffffffffffffffffffffffffff16021790555050505050565b60008073ffffffffffffffffffffffffffffffffffffffff168373ffffffffffffffffffffffffffffffffffffffff16141580156127b557508273ffffffffffffffffffffffffffffffffffffffff168473ffffffffffffffffffffffffffffffffffffffff161480612776575061277584846113a3565b5b806127b457508273ffffffffffffffffffffffffffffffffffffffff1661279c8361187c565b73ffffffffffffffffffffffffffffffffffffffff16145b5b90509392505050565b6000604051905090565b600080fd5b600080fd5b60007fffffffff0000000000000000000000000000000000000000000000000000000082169050919050565b612807816127d2565b811461281257600080fd5b50565b600081359050612824816127fe565b92915050565b6000602082840312156128405761283f6127c8565b5b600061284e84828501612815565b91505092915050565b60008115159050919050565b61286c81612857565b82525050565b60006020820190506128876000830184612863565b92915050565b600081519050919050565b600082825260208201905092915050565b60005b838110156128c75780820151818401526020810190506128ac565b60008484015250505050565b6000601f19601f8301169050919050565b60006128ef8261288d565b6128f98185612898565b93506129098185602086016128a9565b612912816128d3565b840191505092915050565b6000602082019050818103600083015261293781846128e4565b905092915050565b6000819050919050565b6129528161293f565b811461295d57600080fd5b50565b60008135905061296f81612949565b92915050565b60006020828403121561298b5761298a6127c8565b5b600061299984828501612960565b91505092915050565b600073ffffffffffffffffffffffffffffffffffffffff82169050919050565b60006129cd826129a2565b9050919050565b6129dd816129c2565b82525050565b60006020820190506129f860008301846129d4565b92915050565b612a07816129c2565b8114612a1257600080fd5b50565b600081359050612a24816129fe565b92915050565b60008060408385031215612a4157612a406127c8565b5b6000612a4f85828601612a15565b9250506020612a6085828601612960565b9150509250929050565b6000819050919050565b6000612a8f612a8a612a85846129a2565b612a6a565b6129a2565b9050919050565b6000612aa182612a74565b9050919050565b6000612ab382612a96565b9050919050565b612ac381612aa8565b82525050565b6000602082019050612ade6000830184612aba565b92915050565b612aed8161293f565b82525050565b6000602082019050612b086000830184612ae4565b92915050565b600080600060608486031215612b2757612b266127c8565b5b6000612b3586828701612a15565b9350506020612b4686828701612a15565b9250506040612b5786828701612960565b9150509250925092565b600060208284031215612b7757612b766127c8565b5b6000612b8584828501612a15565b91505092915050565b60008060008060808587031215612ba857612ba76127c8565b5b6000612bb687828801612960565b9450506020612bc787828801612960565b9350506040612bd887828801612960565b9250506060612be987828801612960565b91505092959194509250565b600080fd5b7f4e487b7100000000000000000000000000000000000000000000000000000000600052604160045260246000fd5b612c32826128d3565b810181811067ffffffffffffffff82111715612c5157612c50612bfa565b5b80604052505050565b6000612c646127be565b9050612c708282612c29565b919050565b600080fd5b600080fd5b600080fd5b600067ffffffffffffffff821115612c9f57612c9e612bfa565b5b612ca8826128d3565b9050602081019050919050565b82818337600083830152505050565b6000612cd7612cd284612c84565b612c5a565b905082815260208101848484011115612cf357612cf2612c7f565b5b612cfe848285612cb5565b509392505050565b600082601f830112612d1b57612d1a612c7a565b5b8135612d2b848260208601612cc4565b91505092915050565b600060a08284031215612d4a57612d49612bf5565b5b612d5460a0612c5a565b9050600082013567ffffffffffffffff811115612d7457612d73612c75565b5b612d8084828501612d06565b600083015250602082013567ffffffffffffffff811115612da457612da3612c75565b5b612db084828501612d06565b602083015250604082013567ffffffffffffffff811115612dd457612dd3612c75565b5b612de084828501612d06565b604083015250606082013567ffffffffffffffff811115612e0457612e03612c75565b5b612e1084828501612d06565b606083015250608082013567ffffffffffffffff811115612e3457612e33612c75565b5b612e4084828501612d06565b60808301525092915050565b60028110612e5957600080fd5b50565b600081359050612e6b81612e4c565b92915050565b60008060408385031215612e8857612e876127c8565b5b600083013567ffffffffffffffff811115612ea657612ea56127cd565b5b612eb285828601612d34565b9250506020612ec385828601612e5c565b9150509250929050565b612ed681612857565b8114612ee157600080fd5b50565b600081359050612ef381612ecd565b92915050565b60008060408385031215612f1057612f0f6127c8565b5b6000612f1e85828601612a15565b9250506020612f2f85828601612ee4565b9150509250929050565b600067ffffffffffffffff821115612f5457612f53612bfa565b5b612f5d826128d3565b9050602081019050919050565b6000612f7d612f7884612f39565b612c5a565b905082815260208101848484011115612f9957612f98612c7f565b5b612fa4848285612cb5565b509392505050565b600082601f830112612fc157612fc0612c7a565b5b8135612fd1848260208601612f6a565b91505092915050565b60008060008060808587031215612ff457612ff36127c8565b5b600061300287828801612a15565b945050602061301387828801612a15565b935050604061302487828801612960565b925050606085013567ffffffffffffffff811115613045576130446127cd565b5b61305187828801612fac565b91505092959194509250565b600060a082019050818103600083015261307781886128e4565b9050818103602083015261308b81876128e4565b9050818103604083015261309f81866128e4565b905081810360608301526130b381856128e4565b905081810360808301526130c781846128e4565b90509695505050505050565b600080604083850312156130ea576130e96127c8565b5b60006130f885828601612a15565b925050602061310985828601612a15565b9150509250929050565b7f4e487b7100000000000000000000000000000000000000000000000000000000600052602260045260246000fd5b6000600282049050600182168061315a57607f821691505b60208210810361316d5761316c613113565b5b50919050565b600081905092915050565b50565b600061318e600083613173565b91506131998261317e565b600082019050919050565b60006131af82613181565b9150819050919050565b7f455448205472616e73666572206661696c656400000000000000000000000000600082015250565b60006131ef601383612898565b91506131fa826131b9565b602082019050919050565b6000602082019050818103600083015261321e816131e2565b9050919050565b60008151905061323481612949565b92915050565b6000602082840312156132505761324f6127c8565b5b600061325e84828501613225565b91505092915050565b600060808201905061327c6000830187612ae4565b6132896020830186612ae4565b6132966040830185612ae4565b6132a36060830184612ae4565b95945050505050565b60008190508160005260206000209050919050565b60006020601f8301049050919050565b600082821b905092915050565b60006008830261330e7fffffffffffffffffffffffffffffffffffffffffffffffffffffffffffffffff826132d1565b61331886836132d1565b95508019841693508086168417925050509392505050565b600061334b6133466133418461293f565b612a6a565b61293f565b9050919050565b6000819050919050565b61336583613330565b61337961337182613352565b8484546132de565b825550505050565b600090565b61338e613381565b61339981848461335c565b505050565b5b818110156133bd576133b2600082613386565b60018101905061339f565b5050565b601f821115613402576133d3816132ac565b6133dc846132c1565b810160208510156133eb578190505b6133ff6133f7856132c1565b83018261339e565b50505b505050565b600082821c905092915050565b600061342560001984600802613407565b1980831691505092915050565b600061343e8383613414565b9150826002028217905092915050565b6134578261288d565b67ffffffffffffffff8111156134705761346f612bfa565b5b61347a8254613142565b6134858282856133c1565b600060209050601f8311600181146134b857600084156134a6578287015190505b6134b08582613432565b865550613518565b601f1984166134c6866132ac565b60005b828110156134ee578489015182556001820191506020850194506020810190506134c9565b8683101561350b5784890151613507601f891682613414565b8355505b6001600288020188555050505b505050505050565b7f4e487b7100000000000000000000000000000000000000000000000000000000600052602160045260246000fd5b600281106135605761355f613520565b5b50565b60008190506135718261354f565b919050565b600061358182613563565b9050919050565b61359181613576565b82525050565b60006020820190506135ac6000830184613588565b92915050565b600081905092915050565b60006135c88261288d565b6135d281856135b2565b93506135e28185602086016128a9565b80840191505092915050565b60006135fa82856135bd565b915061360682846135bd565b91508190509392505050565b7f4e487b7100000000000000000000000000000000000000000000000000000000600052601160045260246000fd5b600061364c8261293f565b91507fffffffffffffffffffffffffffffffffffffffffffffffffffffffffffffffff820361367e5761367d613612565b5b600182019050919050565b600060408201905061369e60008301856129d4565b6136ab6020830184612ae4565b9392505050565b7f4e487b7100000000000000000000000000000000000000000000000000000000600052601260045260246000fd5b60006060820190506136f660008301866129d4565b61370360208301856129d4565b6137106040830184612ae4565b949350505050565b600081519050919050565b600082825260208201905092915050565b600061373f82613718565b6137498185613723565b93506137598185602086016128a9565b613762816128d3565b840191505092915050565b600060808201905061378260008301876129d4565b61378f60208301866129d4565b61379c6040830185612ae4565b81810360608301526137ae8184613734565b905095945050505050565b6000815190506137c8816127fe565b92915050565b6000602082840312156137e4576137e36127c8565b5b60006137f2848285016137b9565b9150509291505056fea2646970667358221220b1bc04611a547f0168c99d5da1e9d307472b57951617a11a388850980aca2b5f64736f6c63430008140033",
  "linkReferences": {},
  "deployedLinkReferences": {}
}