{
  "_format": "hh-sol-artifact-1",
  "contractName": "ConnectionSBT",
  "sourceName": "contracts/ConnectionSBT.sol",
  "abi": [
    {
      "inputs": [],
      "stateMutability": "nonpayable",
      "type": "constructor"
    },
    {
      "inputs": [],
      "name": "ERC721EnumerableForbiddenBatchMint",
      "type": "error"
    },
    {
      "inputs": [
        {
          "internalType": "address",
          "name": "sender",
          "type": "address"
        },
        {
          "internalType": "uint256",
          "name": "tokenId",
          "type": "uint256"
        },
        {
          "internalType": "address",
          "name": "owner",
          "type": "address"
        }
      ],
      "name": "ERC721IncorrectOwner",
      "type": "error"
    },
    {
      "inputs": [
        {
          "internalType": "address",
          "name": "operator",
          "type": "address"
        },
        {
          "internalType": "uint256",
          "name": "tokenId",
          "type": "uint256"
        }
      ],
      "name": "ERC721InsufficientApproval",
      "type": "error"
    },
    {
      "inputs": [
        {
          "internalType": "address",
          "name": "approver",
          "type": "address"
        }
      ],
      "name": "ERC721InvalidApprover",
      "type": "error"
    },
    {
      "inputs": [
        {
          "internalType": "address",
          "name": "operator",
          "type": "address"
        }
      ],
      "name": "ERC721InvalidOperator",
      "type": "error"
    },
    {
      "inputs": [
        {
          "internalType": "address",
          "name": "owner",
          "type": "address"
        }
      ],
      "name": "ERC721InvalidOwner",
      "type": "error"
    },
    {
      "inputs": [
        {
          "internalType": "address",
          "name": "receiver",
          "type": "address"
        }
      ],
      "name": "ERC721InvalidReceiver",
      "type": "error"
    },
    {
      "inputs": [
        {
          "internalType": "address",
          "name": "sender",
          "type": "address"
        }
      ],
      "name": "ERC721InvalidSender",
      "type": "error"
    },
    {
      "inputs": [
        {
          "internalType": "uint256",
          "name": "tokenId",
          "type": "uint256"
        }
      ],
      "name": "ERC721NonexistentToken",
      "type": "error"
    },
    {
      "inputs": [
        {
          "internalType": "address",
          "name": "owner",
          "type": "address"
        },
        {
          "internalType": "uint256",
          "name": "index",
          "type": "uint256"
        }
      ],
      "name": "ERC721OutOfBoundsIndex",
      "type": "error"
    },
    {
      "inputs": [
        {
          "internalType": "address",
          "name": "owner",
          "type": "address"
        }
      ],
      "name": "OwnableInvalidOwner",
      "type": "error"
    },
    {
      "inputs": [
        {
          "internalType": "address",
          "name": "account",
          "type": "address"
        }
      ],
      "name": "OwnableUnauthorizedAccount",
      "type": "error"
    },
    {
      "anonymous": false,
      "inputs": [
        {
          "indexed": true,
          "internalType": "address",
          "name": "owner",
          "type": "address"
        },
        {
          "indexed": true,
          "internalType": "address",
          "name": "approved",
          "type": "address"
        },
        {
          "indexed": true,
          "internalType": "uint256",
          "name": "tokenId",
          "type": "uint256"
        }
      ],
      "name": "Approval",
      "type": "event"
    },
    {
      "anonymous": false,
      "inputs": [
        {
          "indexed": true,
          "internalType": "address",
          "name": "owner",
          "type": "address"
        },
        {
          "indexed": true,
          "internalType": "address",
          "name": "operator",
          "type": "address"
        },
        {
          "indexed": false,
          "internalType": "bool",
          "name": "approved",
          "type": "bool"
        }
      ],
      "name": "ApprovalForAll",
      "type": "event"
    },
    {
      "anonymous": false,
      "inputs": [
        {
          "indexed": false,
          "internalType": "uint256",
          "name": "_fromTokenId",
          "type": "uint256"
        },
        {
          "indexed": false,
          "internalType": "uint256",
          "name": "_toTokenId",
          "type": "uint256"
        }
      ],
      "name": "BatchMetadataUpdate",
      "type": "event"
    },
    {
      "anonymous": false,
      "inputs": [
        {
          "indexed": false,
          "internalType": "uint256",
          "name": "_tokenId",
          "type": "uint256"
        }
      ],
      "name": "MetadataUpdate",
      "type": "event"
    },
    {
      "anonymous": false,
      "inputs": [
        {
          "indexed": true,
          "internalType": "address",
          "name": "previousOwner",
          "type": "address"
        },
        {
          "indexed": true,
          "internalType": "address",
          "name": "newOwner",
          "type": "address"
        }
      ],
      "name": "OwnershipTransferred",
      "type": "event"
    },
    {
      "anonymous": false,
      "inputs": [
        {
          "indexed": true,
          "internalType": "address",
          "name": "from",
          "type": "address"
        },
        {
          "indexed": true,
          "internalType": "address",
          "name": "to",
          "type": "address"
        },
        {
          "indexed": true,
          "internalType": "uint256",
          "name": "tokenId",
          "type": "uint256"
        }
      ],
      "name": "Transfer",
      "type": "event"
    },
    {
      "inputs": [
        {
          "internalType": "address",
          "name": "to",
          "type": "address"
        },
        {
          "internalType": "uint256",
          "name": "tokenId",
          "type": "uint256"
        }
      ],
      "name": "approve",
      "outputs": [],
      "stateMutability": "nonpayable",
      "type": "function"
    },
    {
      "inputs": [
        {
          "internalType": "address",
          "name": "owner",
          "type": "address"
        }
      ],
      "name": "balanceOf",
      "outputs": [
        {
          "internalType": "uint256",
          "name": "",
          "type": "uint256"
        }
      ],
      "stateMutability": "view",
      "type": "function"
    },
    {
      "inputs": [
        {
          "internalType": "uint256",
          "name": "tokenId",
          "type": "uint256"
        }
      ],
      "name": "getApproved",
      "outputs": [
        {
          "internalType": "address",
          "name": "",
          "type": "address"
        }
      ],
      "stateMutability": "view",
      "type": "function"
    },
    {
      "inputs": [
        {
          "internalType": "address",
          "name": "owner",
          "type": "address"
        },
        {
          "internalType": "address",
          "name": "operator",
          "type": "address"
        }
      ],
      "name": "isApprovedForAll",
      "outputs": [
        {
          "internalType": "bool",
          "name": "",
          "type": "bool"
        }
      ],
      "stateMutability": "view",
      "type": "function"
    },
    {
      "inputs": [
        {
          "internalType": "address",
          "name": "partner",
          "type": "address"
        },
        {
          "internalType": "string",
          "name": "uri",
          "type": "string"
        }
      ],
      "name": "mintConnection",
      "outputs": [],
      "stateMutability": "nonpayable",
      "type": "function"
    },
    {
      "inputs": [],
      "name": "name",
      "outputs": [
        {
          "internalType": "string",
          "name": "",
          "type": "string"
        }
      ],
      "stateMutability": "view",
      "type": "function"
    },
    {
      "inputs": [],
      "name": "owner",
      "outputs": [
        {
          "internalType": "address",
          "name": "",
          "type": "address"
        }
      ],
      "stateMutability": "view",
      "type": "function"
    },
    {
      "inputs": [
        {
          "internalType": "uint256",
          "name": "tokenId",
          "type": "uint256"
        }
      ],
      "name": "ownerOf",
      "outputs": [
        {
          "internalType": "address",
          "name": "",
          "type": "address"
        }
      ],
      "stateMutability": "view",
      "type": "function"
    },
    {
      "inputs": [],
      "name": "renounceOwnership",
      "outputs": [],
      "stateMutability": "nonpayable",
      "type": "function"
    },
    {
      "inputs": [
        {
          "internalType": "address",
          "name": "from",
          "type": "address"
        },
        {
          "internalType": "address",
          "name": "to",
          "type": "address"
        },
        {
          "internalType": "uint256",
          "name": "tokenId",
          "type": "uint256"
        }
      ],
      "name": "safeTransferFrom",
      "outputs": [],
      "stateMutability": "nonpayable",
      "type": "function"
    },
    {
      "inputs": [
        {
          "internalType": "address",
          "name": "from",
          "type": "address"
        },
        {
          "internalType": "address",
          "name": "to",
          "type": "address"
        },
        {
          "internalType": "uint256",
          "name": "tokenId",
          "type": "uint256"
        },
        {
          "internalType": "bytes",
          "name": "data",
          "type": "bytes"
        }
      ],
      "name": "safeTransferFrom",
      "outputs": [],
      "stateMutability": "nonpayable",
      "type": "function"
    },
    {
      "inputs": [
        {
          "internalType": "address",
          "name": "operator",
          "type": "address"
        },
        {
          "internalType": "bool",
          "name": "approved",
          "type": "bool"
        }
      ],
      "name": "setApprovalForAll",
      "outputs": [],
      "stateMutability": "nonpayable",
      "type": "function"
    },
    {
      "inputs": [
        {
          "internalType": "bytes4",
          "name": "interfaceId",
          "type": "bytes4"
        }
      ],
      "name": "supportsInterface",
      "outputs": [
        {
          "internalType": "bool",
          "name": "",
          "type": "bool"
        }
      ],
      "stateMutability": "view",
      "type": "function"
    },
    {
      "inputs": [],
      "name": "symbol",
      "outputs": [
        {
          "internalType": "string",
          "name": "",
          "type": "string"
        }
      ],
      "stateMutability": "view",
      "type": "function"
    },
    {
      "inputs": [
        {
          "internalType": "uint256",
          "name": "index",
          "type": "uint256"
        }
      ],
      "name": "tokenByIndex",
      "outputs": [
        {
          "internalType": "uint256",
          "name": "",
          "type": "uint256"
        }
      ],
      "stateMutability": "view",
      "type": "function"
    },
    {
      "inputs": [
        {
          "internalType": "address",
          "name": "owner",
          "type": "address"
        },
        {
          "internalType": "uint256",
          "name": "index",
          "type": "uint256"
        }
      ],
      "name": "tokenOfOwnerByIndex",
      "outputs": [
        {
          "internalType": "uint256",
          "name": "",
          "type": "uint256"
        }
      ],
      "stateMutability": "view",
      "type": "function"
    },
    {
      "inputs": [
        {
          "internalType": "uint256",
          "name": "tokenId",
          "type": "uint256"
        }
      ],
      "name": "tokenURI",
      "outputs": [
        {
          "internalType": "string",
          "name": "",
          "type": "string"
        }
      ],
      "stateMutability": "view",
      "type": "function"
    },
    {
      "inputs": [],
      "name": "totalSupply",
      "outputs": [
        {
          "internalType": "uint256",
          "name": "",
          "type": "uint256"
        }
      ],
      "stateMutability": "view",
      "type": "function"
    },
    {
      "inputs": [
        {
          "internalType": "address",
          "name": "from",
          "type": "address"
        },
        {
          "internalType": "address",
          "name": "to",
          "type": "address"
        },
        {
          "internalType": "uint256",
          "name": "tokenId",
          "type": "uint256"
        }
      ],
      "name": "transferFrom",
      "outputs": [],
      "stateMutability": "nonpayable",
      "type": "function"
    },
    {
      "inputs": [
        {
          "internalType": "address",
          "name": "newOwner",
          "type": "address"
        }
      ],
      "name": "transferOwnership",
      "outputs": [],
      "stateMutability": "nonpayable",
      "type": "function"
    }
  ],
  "bytecode": "0x60806040523480156200001157600080fd5b50336040518060400160405280600d81526020017f436f6e6e656374696f6e534254000000000000000000000000000000000000008152506040518060400160405280600481526020017f4353425400000000000000000000000000000000000000000000000000000000815250816000908162000090919062000472565b508060019081620000a2919062000472565b505050600073ffffffffffffffffffffffffffffffffffffffff168173ffffffffffffffffffffffffffffffffffffffff16036200011a5760006040517f1e4fbdf70000000000000000000000000000000000000000000000000000000081526004016200011191906200059e565b60405180910390fd5b6200012b816200013260201b60201c565b50620005bb565b6000600b60009054906101000a900473ffffffffffffffffffffffffffffffffffffffff16905081600b60006101000a81548173ffffffffffffffffffffffffffffffffffffffff021916908373ffffffffffffffffffffffffffffffffffffffff1602179055508173ffffffffffffffffffffffffffffffffffffffff168173ffffffffffffffffffffffffffffffffffffffff167f8be0079c531659141344cd1fd0a4f28419497f9722a3daafe3b4186f6b6457e060405160405180910390a35050565b600081519050919050565b7f4e487b7100000000000000000000000000000000000000000000000000000000600052604160045260246000fd5b7f4e487b7100000000000000000000000000000000000000000000000000000000600052602260045260246000fd5b600060028204905060018216806200027a57607f821691505b60208210810362000290576200028f62000232565b5b50919050565b60008190508160005260206000209050919050565b60006020601f8301049050919050565b600082821b905092915050565b600060088302620002fa7fffffffffffffffffffffffffffffffffffffffffffffffffffffffffffffffff82620002bb565b620003068683620002bb565b95508019841693508086168417925050509392505050565b6000819050919050565b6000819050919050565b6000620003536200034d62000347846200031e565b62000328565b6200031e565b9050919050565b6000819050919050565b6200036f8362000332565b620003876200037e826200035a565b848454620002c8565b825550505050565b600090565b6200039e6200038f565b620003ab81848462000364565b505050565b5b81811015620003d357620003c760008262000394565b600181019050620003b1565b5050565b601f8211156200042257620003ec8162000296565b620003f784620002ab565b8101602085101562000407578190505b6200041f6200041685620002ab565b830182620003b0565b50505b505050565b600082821c905092915050565b6000620004476000198460080262000427565b1980831691505092915050565b600062000462838362000434565b9150826002028217905092915050565b6200047d82620001f8565b67ffffffffffffffff81111562000499576200049862000203565b5b620004a5825462000261565b620004b2828285620003d7565b600060209050601f831160018114620004ea5760008415620004d5578287015190505b620004e1858262000454565b86555062000551565b601f198416620004fa8662000296565b60005b828110156200052457848901518255600182019150602085019450602081019050620004fd565b8683101562000544578489015162000540601f89168262000434565b8355505b6001600288020188555050505b505050505050565b600073ffffffffffffffffffffffffffffffffffffffff82169050919050565b6000620005868262000559565b9050919050565b620005988162000579565b82525050565b6000602082019050620005b560008301846200058d565b92915050565b612e9380620005cb6000396000f3fe608060405234801561001057600080fd5b506004361061012c5760003560e01c806370a08231116100ad578063b88d4fde11610071578063b88d4fde14610343578063c06fb0511461035f578063c87b56dd1461037b578063e985e9c5146103ab578063f2fde38b146103db5761012c565b806370a08231146102b1578063715018a6146102e15780638da5cb5b146102eb57806395d89b4114610309578063a22cb465146103275761012c565b806323b872dd116100f457806323b872dd146101e95780632f745c591461020557806342842e0e146102355780634f6ccce7146102515780636352211e146102815761012c565b806301ffc9a71461013157806306fdde0314610161578063081812fc1461017f578063095ea7b3146101af57806318160ddd146101cb575b600080fd5b61014b600480360381019061014691906121c7565b6103f7565b604051610158919061220f565b60405180910390f35b610169610409565b60405161017691906122ba565b60405180910390f35b61019960048036038101906101949190612312565b61049b565b6040516101a69190612380565b60405180910390f35b6101c960048036038101906101c491906123c7565b6104b7565b005b6101d36104cd565b6040516101e09190612416565b60405180910390f35b61020360048036038101906101fe9190612431565b6104da565b005b61021f600480360381019061021a91906123c7565b6105dc565b60405161022c9190612416565b60405180910390f35b61024f600480360381019061024a9190612431565b610685565b005b61026b60048036038101906102669190612312565b6106a5565b6040516102789190612416565b60405180910390f35b61029b60048036038101906102969190612312565b61071b565b6040516102a89190612380565b60405180910390f35b6102cb60048036038101906102c69190612484565b61072d565b6040516102d89190612416565b60405180910390f35b6102e96107e7565b005b6102f36107fb565b6040516103009190612380565b60405180910390f35b610311610825565b60405161031e91906122ba565b60405180910390f35b610341600480360381019061033c91906124dd565b6108b7565b005b61035d60048036038101906103589190612652565b6108cd565b005b61037960048036038101906103749190612776565b6108f2565b005b61039560048036038101906103909190612312565b610956565b6040516103a291906122ba565b60405180910390f35b6103c560048036038101906103c091906127d2565b610968565b6040516103d2919061220f565b60405180910390f35b6103f560048036038101906103f09190612484565b6109fc565b005b600061040282610a82565b9050919050565b60606000805461041890612841565b80601f016020809104026020016040519081016040528092919081815260200182805461044490612841565b80156104915780601f1061046657610100808354040283529160200191610491565b820191906000526020600020905b81548152906001019060200180831161047457829003601f168201915b5050505050905090565b60006104a682610afc565b506104b082610b84565b9050919050565b6104c982826104c4610bc1565b610bc9565b5050565b6000600980549050905090565b600073ffffffffffffffffffffffffffffffffffffffff168273ffffffffffffffffffffffffffffffffffffffff160361054c5760006040517f64a0ae920000000000000000000000000000000000000000000000000000000081526004016105439190612380565b60405180910390fd5b6000610560838361055b610bc1565b610bdb565b90508373ffffffffffffffffffffffffffffffffffffffff168173ffffffffffffffffffffffffffffffffffffffff16146105d6578382826040517f64283d7b0000000000000000000000000000000000000000000000000000000081526004016105cd93929190612872565b60405180910390fd5b50505050565b60006105e78361072d565b821061062c5782826040517fa57d13dc0000000000000000000000000000000000000000000000000000000081526004016106239291906128a9565b60405180910390fd5b600760008473ffffffffffffffffffffffffffffffffffffffff1673ffffffffffffffffffffffffffffffffffffffff168152602001908152602001600020600083815260200190815260200160002054905092915050565b6106a0838383604051806020016040528060008152506108cd565b505050565b60006106af6104cd565b82106106f5576000826040517fa57d13dc0000000000000000000000000000000000000000000000000000000081526004016106ec9291906128a9565b60405180910390fd5b60098281548110610709576107086128d2565b5b90600052602060002001549050919050565b600061072682610afc565b9050919050565b60008073ffffffffffffffffffffffffffffffffffffffff168273ffffffffffffffffffffffffffffffffffffffff16036107a05760006040517f89c62b640000000000000000000000000000000000000000000000000000000081526004016107979190612380565b60405180910390fd5b600360008373ffffffffffffffffffffffffffffffffffffffff1673ffffffffffffffffffffffffffffffffffffffff168152602001908152602001600020549050919050565b6107ef610ca8565b6107f96000610d2f565b565b6000600b60009054906101000a900473ffffffffffffffffffffffffffffffffffffffff16905090565b60606001805461083490612841565b80601f016020809104026020016040519081016040528092919081815260200182805461086090612841565b80156108ad5780601f10610882576101008083540402835291602001916108ad565b820191906000526020600020905b81548152906001019060200180831161089057829003601f168201915b5050505050905090565b6108c96108c2610bc1565b8383610df5565b5050565b6108d88484846104da565b6108ec6108e3610bc1565b85858585610f64565b50505050565b6000600c600081548092919061090790612930565b9190505590506109173382611115565b6109218183611133565b6000600c600081548092919061093690612930565b9190505590506109468482611115565b6109508184611133565b50505050565b60606109618261118f565b9050919050565b6000600560008473ffffffffffffffffffffffffffffffffffffffff1673ffffffffffffffffffffffffffffffffffffffff16815260200190815260200160002060008373ffffffffffffffffffffffffffffffffffffffff1673ffffffffffffffffffffffffffffffffffffffff16815260200190815260200160002060009054906101000a900460ff16905092915050565b610a04610ca8565b600073ffffffffffffffffffffffffffffffffffffffff168173ffffffffffffffffffffffffffffffffffffffff1603610a765760006040517f1e4fbdf7000000000000000000000000000000000000000000000000000000008152600401610a6d9190612380565b60405180910390fd5b610a7f81610d2f565b50565b60007f780e9d63000000000000000000000000000000000000000000000000000000007bffffffffffffffffffffffffffffffffffffffffffffffffffffffff1916827bffffffffffffffffffffffffffffffffffffffffffffffffffffffff19161480610af55750610af4826112a2565b5b9050919050565b600080610b0883611303565b9050600073ffffffffffffffffffffffffffffffffffffffff168173ffffffffffffffffffffffffffffffffffffffff1603610b7b57826040517f7e273289000000000000000000000000000000000000000000000000000000008152600401610b729190612416565b60405180910390fd5b80915050919050565b60006004600083815260200190815260200160002060009054906101000a900473ffffffffffffffffffffffffffffffffffffffff169050919050565b600033905090565b610bd68383836001611340565b505050565b600080610be784611303565b9050600073ffffffffffffffffffffffffffffffffffffffff168173ffffffffffffffffffffffffffffffffffffffff1614158015610c535750600073ffffffffffffffffffffffffffffffffffffffff168573ffffffffffffffffffffffffffffffffffffffff1614155b15610c93576040517f08c379a0000000000000000000000000000000000000000000000000000000008152600401610c8a906129ea565b60405180910390fd5b610c9e858585611505565b9150509392505050565b610cb0610bc1565b73ffffffffffffffffffffffffffffffffffffffff16610cce6107fb565b73ffffffffffffffffffffffffffffffffffffffff1614610d2d57610cf1610bc1565b6040517f118cdaa7000000000000000000000000000000000000000000000000000000008152600401610d249190612380565b60405180910390fd5b565b6000600b60009054906101000a900473ffffffffffffffffffffffffffffffffffffffff16905081600b60006101000a81548173ffffffffffffffffffffffffffffffffffffffff021916908373ffffffffffffffffffffffffffffffffffffffff1602179055508173ffffffffffffffffffffffffffffffffffffffff168173ffffffffffffffffffffffffffffffffffffffff167f8be0079c531659141344cd1fd0a4f28419497f9722a3daafe3b4186f6b6457e060405160405180910390a35050565b600073ffffffffffffffffffffffffffffffffffffffff168273ffffffffffffffffffffffffffffffffffffffff1603610e6657816040517f5b08ba18000000000000000000000000000000000000000000000000000000008152600401610e5d9190612380565b60405180910390fd5b80600560008573ffffffffffffffffffffffffffffffffffffffff1673ffffffffffffffffffffffffffffffffffffffff16815260200190815260200160002060008473ffffffffffffffffffffffffffffffffffffffff1673ffffffffffffffffffffffffffffffffffffffff16815260200190815260200160002060006101000a81548160ff0219169083151502179055508173ffffffffffffffffffffffffffffffffffffffff168373ffffffffffffffffffffffffffffffffffffffff167f17307eab39ab6107e8899845ad3d59bd9653f200f220920489ca2b5937696c3183604051610f57919061220f565b60405180910390a3505050565b60008373ffffffffffffffffffffffffffffffffffffffff163b111561110e578273ffffffffffffffffffffffffffffffffffffffff1663150b7a02868685856040518563ffffffff1660e01b8152600401610fc39493929190612a5f565b6020604051808303816000875af1925050508015610fff57506040513d601f19601f82011682018060405250810190610ffc9190612ac0565b60015b611083573d806000811461102f576040519150601f19603f3d011682016040523d82523d6000602084013e611034565b606091505b50600081510361107b57836040517f64a0ae920000000000000000000000000000000000000000000000000000000081526004016110729190612380565b60405180910390fd5b805160208201fd5b63150b7a0260e01b7bffffffffffffffffffffffffffffffffffffffffffffffffffffffff1916817bffffffffffffffffffffffffffffffffffffffffffffffffffffffff19161461110c57836040517f64a0ae920000000000000000000000000000000000000000000000000000000081526004016111039190612380565b60405180910390fd5b505b5050505050565b61112f828260405180602001604052806000815250611622565b5050565b806006600084815260200190815260200160002090816111539190612c99565b507ff8e1a15aba9398e019f0b49df1a4fde98ee17ae345cb5f6b5e2c27f5033e8ce7826040516111839190612416565b60405180910390a15050565b606061119a82610afc565b5060006006600084815260200190815260200160002080546111bb90612841565b80601f01602080910402602001604051908101604052809291908181526020018280546111e790612841565b80156112345780601f1061120957610100808354040283529160200191611234565b820191906000526020600020905b81548152906001019060200180831161121757829003601f168201915b505050505090506000611245611646565b9050600081510361125a57819250505061129d565b60008251111561128f578082604051602001611277929190612da7565b6040516020818303038152906040529250505061129d565b6112988461165d565b925050505b919050565b6000634906490660e01b7bffffffffffffffffffffffffffffffffffffffffffffffffffffffff1916827bffffffffffffffffffffffffffffffffffffffffffffffffffffffff191614806112fc57506112fb826116c6565b5b9050919050565b60006002600083815260200190815260200160002060009054906101000a900473ffffffffffffffffffffffffffffffffffffffff169050919050565b80806113795750600073ffffffffffffffffffffffffffffffffffffffff168273ffffffffffffffffffffffffffffffffffffffff1614155b156114ad57600061138984610afc565b9050600073ffffffffffffffffffffffffffffffffffffffff168373ffffffffffffffffffffffffffffffffffffffff16141580156113f457508273ffffffffffffffffffffffffffffffffffffffff168173ffffffffffffffffffffffffffffffffffffffff1614155b801561140757506114058184610968565b155b1561144957826040517fa9fbf51f0000000000000000000000000000000000000000000000000000000081526004016114409190612380565b60405180910390fd5b81156114ab57838573ffffffffffffffffffffffffffffffffffffffff168273ffffffffffffffffffffffffffffffffffffffff167f8c5be1e5ebec7d5bd14f71427d1e84f3dd0314c0f7b2291e5b200ac8c7c3b92560405160405180910390a45b505b836004600085815260200190815260200160002060006101000a81548173ffffffffffffffffffffffffffffffffffffffff021916908373ffffffffffffffffffffffffffffffffffffffff16021790555050505050565b6000806115138585856117a8565b9050600073ffffffffffffffffffffffffffffffffffffffff168173ffffffffffffffffffffffffffffffffffffffff160361155757611552846119c2565b611596565b8473ffffffffffffffffffffffffffffffffffffffff168173ffffffffffffffffffffffffffffffffffffffff1614611595576115948185611a0b565b5b5b600073ffffffffffffffffffffffffffffffffffffffff168573ffffffffffffffffffffffffffffffffffffffff16036115d8576115d384611af6565b611617565b8473ffffffffffffffffffffffffffffffffffffffff168173ffffffffffffffffffffffffffffffffffffffff1614611616576116158585611bc7565b5b5b809150509392505050565b61162c8383611c52565b611641611637610bc1565b6000858585610f64565b505050565b606060405180602001604052806000815250905090565b606061166882610afc565b506000611673611646565b9050600081511161169357604051806020016040528060008152506116be565b8061169d84611d4b565b6040516020016116ae929190612da7565b6040516020818303038152906040525b915050919050565b60007f80ac58cd000000000000000000000000000000000000000000000000000000007bffffffffffffffffffffffffffffffffffffffffffffffffffffffff1916827bffffffffffffffffffffffffffffffffffffffffffffffffffffffff1916148061179157507f5b5e139f000000000000000000000000000000000000000000000000000000007bffffffffffffffffffffffffffffffffffffffffffffffffffffffff1916827bffffffffffffffffffffffffffffffffffffffffffffffffffffffff1916145b806117a157506117a082611e19565b5b9050919050565b6000806117b484611303565b9050600073ffffffffffffffffffffffffffffffffffffffff168373ffffffffffffffffffffffffffffffffffffffff16146117f6576117f5818486611e83565b5b600073ffffffffffffffffffffffffffffffffffffffff168173ffffffffffffffffffffffffffffffffffffffff161461188757611838600085600080611340565b6001600360008373ffffffffffffffffffffffffffffffffffffffff1673ffffffffffffffffffffffffffffffffffffffff168152602001908152602001600020600082825403925050819055505b600073ffffffffffffffffffffffffffffffffffffffff168573ffffffffffffffffffffffffffffffffffffffff161461190a576001600360008773ffffffffffffffffffffffffffffffffffffffff1673ffffffffffffffffffffffffffffffffffffffff168152602001908152602001600020600082825401925050819055505b846002600086815260200190815260200160002060006101000a81548173ffffffffffffffffffffffffffffffffffffffff021916908373ffffffffffffffffffffffffffffffffffffffff160217905550838573ffffffffffffffffffffffffffffffffffffffff168273ffffffffffffffffffffffffffffffffffffffff167fddf252ad1be2c89b69c2b068fc378daa952ba7f163c4a11628f55a4df523b3ef60405160405180910390a4809150509392505050565b600980549050600a600083815260200190815260200160002081905550600981908060018154018082558091505060019003906000526020600020016000909190919091505550565b6000611a168361072d565b90506000600860008481526020019081526020016000205490506000600760008673ffffffffffffffffffffffffffffffffffffffff1673ffffffffffffffffffffffffffffffffffffffff1681526020019081526020016000209050828214611ac25760008160008581526020019081526020016000205490508082600085815260200190815260200160002081905550826008600083815260200190815260200160002081905550505b6008600085815260200190815260200160002060009055806000848152602001908152602001600020600090555050505050565b60006001600980549050611b0a9190612dcb565b90506000600a6000848152602001908152602001600020549050600060098381548110611b3a57611b396128d2565b5b906000526020600020015490508060098381548110611b5c57611b5b6128d2565b5b906000526020600020018190555081600a600083815260200190815260200160002081905550600a6000858152602001908152602001600020600090556009805480611bab57611baa612dff565b5b6001900381819060005260206000200160009055905550505050565b60006001611bd48461072d565b611bde9190612dcb565b905081600760008573ffffffffffffffffffffffffffffffffffffffff1673ffffffffffffffffffffffffffffffffffffffff168152602001908152602001600020600083815260200190815260200160002081905550806008600084815260200190815260200160002081905550505050565b600073ffffffffffffffffffffffffffffffffffffffff168273ffffffffffffffffffffffffffffffffffffffff1603611cc45760006040517f64a0ae92000000000000000000000000000000000000000000000000000000008152600401611cbb9190612380565b60405180910390fd5b6000611cd283836000610bdb565b9050600073ffffffffffffffffffffffffffffffffffffffff168173ffffffffffffffffffffffffffffffffffffffff1614611d465760006040517f73c6ac6e000000000000000000000000000000000000000000000000000000008152600401611d3d9190612380565b60405180910390fd5b505050565b606060006001611d5a84611f47565b01905060008167ffffffffffffffff811115611d7957611d78612527565b5b6040519080825280601f01601f191660200182016040528015611dab5781602001600182028036833780820191505090505b509050600082602083010190505b600115611e0e578080600190039150507f3031323334353637383961626364656600000000000000000000000000000000600a86061a8153600a8581611e0257611e01612e2e565b5b04945060008503611db9575b819350505050919050565b60007f01ffc9a7000000000000000000000000000000000000000000000000000000007bffffffffffffffffffffffffffffffffffffffffffffffffffffffff1916827bffffffffffffffffffffffffffffffffffffffffffffffffffffffff1916149050919050565b611e8e83838361209a565b611f4257600073ffffffffffffffffffffffffffffffffffffffff168373ffffffffffffffffffffffffffffffffffffffff1603611f0357806040517f7e273289000000000000000000000000000000000000000000000000000000008152600401611efa9190612416565b60405180910390fd5b81816040517f177e802f000000000000000000000000000000000000000000000000000000008152600401611f399291906128a9565b60405180910390fd5b505050565b600080600090507a184f03e93ff9f4daa797ed6e38ed64bf6a1f0100000000000000008310611fa5577a184f03e93ff9f4daa797ed6e38ed64bf6a1f0100000000000000008381611f9b57611f9a612e2e565b5b0492506040810190505b6d04ee2d6d415b85acef81000000008310611fe2576d04ee2d6d415b85acef81000000008381611fd857611fd7612e2e565b5b0492506020810190505b662386f26fc10000831061201157662386f26fc10000838161200757612006612e2e565b5b0492506010810190505b6305f5e100831061203a576305f5e10083816120305761202f612e2e565b5b0492506008810190505b612710831061205f57612710838161205557612054612e2e565b5b0492506004810190505b60648310612082576064838161207857612077612e2e565b5b0492506002810190505b600a8310612091576001810190505b80915050919050565b60008073ffffffffffffffffffffffffffffffffffffffff168373ffffffffffffffffffffffffffffffffffffffff161415801561215257508273ffffffffffffffffffffffffffffffffffffffff168473ffffffffffffffffffffffffffffffffffffffff16148061211357506121128484610968565b5b8061215157508273ffffffffffffffffffffffffffffffffffffffff1661213983610b84565b73ffffffffffffffffffffffffffffffffffffffff16145b5b90509392505050565b6000604051905090565b600080fd5b600080fd5b60007fffffffff0000000000000000000000000000000000000000000000000000000082169050919050565b6121a48161216f565b81146121af57600080fd5b50565b6000813590506121c18161219b565b92915050565b6000602082840312156121dd576121dc612165565b5b60006121eb848285016121b2565b91505092915050565b60008115159050919050565b612209816121f4565b82525050565b60006020820190506122246000830184612200565b92915050565b600081519050919050565b600082825260208201905092915050565b60005b83811015612264578082015181840152602081019050612249565b60008484015250505050565b6000601f19601f8301169050919050565b600061228c8261222a565b6122968185612235565b93506122a6818560208601612246565b6122af81612270565b840191505092915050565b600060208201905081810360008301526122d48184612281565b905092915050565b6000819050919050565b6122ef816122dc565b81146122fa57600080fd5b50565b60008135905061230c816122e6565b92915050565b60006020828403121561232857612327612165565b5b6000612336848285016122fd565b91505092915050565b600073ffffffffffffffffffffffffffffffffffffffff82169050919050565b600061236a8261233f565b9050919050565b61237a8161235f565b82525050565b60006020820190506123956000830184612371565b92915050565b6123a48161235f565b81146123af57600080fd5b50565b6000813590506123c18161239b565b92915050565b600080604083850312156123de576123dd612165565b5b60006123ec858286016123b2565b92505060206123fd858286016122fd565b9150509250929050565b612410816122dc565b82525050565b600060208201905061242b6000830184612407565b92915050565b60008060006060848603121561244a57612449612165565b5b6000612458868287016123b2565b9350506020612469868287016123b2565b925050604061247a868287016122fd565b9150509250925092565b60006020828403121561249a57612499612165565b5b60006124a8848285016123b2565b91505092915050565b6124ba816121f4565b81146124c557600080fd5b50565b6000813590506124d7816124b1565b92915050565b600080604083850312156124f4576124f3612165565b5b6000612502858286016123b2565b9250506020612513858286016124c8565b9150509250929050565b600080fd5b600080fd5b7f4e487b7100000000000000000000000000000000000000000000000000000000600052604160045260246000fd5b61255f82612270565b810181811067ffffffffffffffff8211171561257e5761257d612527565b5b80604052505050565b600061259161215b565b905061259d8282612556565b919050565b600067ffffffffffffffff8211156125bd576125bc612527565b5b6125c682612270565b9050602081019050919050565b82818337600083830152505050565b60006125f56125f0846125a2565b612587565b90508281526020810184848401111561261157612610612522565b5b61261c8482856125d3565b509392505050565b600082601f8301126126395761263861251d565b5b81356126498482602086016125e2565b91505092915050565b6000806000806080858703121561266c5761266b612165565b5b600061267a878288016123b2565b945050602061268b878288016123b2565b935050604061269c878288016122fd565b925050606085013567ffffffffffffffff8111156126bd576126bc61216a565b5b6126c987828801612624565b91505092959194509250565b600067ffffffffffffffff8211156126f0576126ef612527565b5b6126f982612270565b9050602081019050919050565b6000612719612714846126d5565b612587565b90508281526020810184848401111561273557612734612522565b5b6127408482856125d3565b509392505050565b600082601f83011261275d5761275c61251d565b5b813561276d848260208601612706565b91505092915050565b6000806040838503121561278d5761278c612165565b5b600061279b858286016123b2565b925050602083013567ffffffffffffffff8111156127bc576127bb61216a565b5b6127c885828601612748565b9150509250929050565b600080604083850312156127e9576127e8612165565b5b60006127f7858286016123b2565b9250506020612808858286016123b2565b9150509250929050565b7f4e487b7100000000000000000000000000000000000000000000000000000000600052602260045260246000fd5b6000600282049050600182168061285957607f821691505b60208210810361286c5761286b612812565b5b50919050565b60006060820190506128876000830186612371565b6128946020830185612407565b6128a16040830184612371565b949350505050565b60006040820190506128be6000830185612371565b6128cb6020830184612407565b9392505050565b7f4e487b7100000000000000000000000000000000000000000000000000000000600052603260045260246000fd5b7f4e487b7100000000000000000000000000000000000000000000000000000000600052601160045260246000fd5b600061293b826122dc565b91507fffffffffffffffffffffffffffffffffffffffffffffffffffffffffffffffff820361296d5761296c612901565b5b600182019050919050565b7f436f6e6e656374696f6e5342543a20536f756c626f756e6420746f6b656e206360008201527f616e6e6f74206265207472616e73666572726564000000000000000000000000602082015250565b60006129d4603483612235565b91506129df82612978565b604082019050919050565b60006020820190508181036000830152612a03816129c7565b9050919050565b600081519050919050565b600082825260208201905092915050565b6000612a3182612a0a565b612a3b8185612a15565b9350612a4b818560208601612246565b612a5481612270565b840191505092915050565b6000608082019050612a746000830187612371565b612a816020830186612371565b612a8e6040830185612407565b8181036060830152612aa08184612a26565b905095945050505050565b600081519050612aba8161219b565b92915050565b600060208284031215612ad657612ad5612165565b5b6000612ae484828501612aab565b91505092915050565b60008190508160005260206000209050919050565b60006020601f8301049050919050565b600082821b905092915050565b600060088302612b4f7fffffffffffffffffffffffffffffffffffffffffffffffffffffffffffffffff82612b12565b612b598683612b12565b95508019841693508086168417925050509392505050565b6000819050919050565b6000612b96612b91612b8c846122dc565b612b71565b6122dc565b9050919050565b6000819050919050565b612bb083612b7b565b612bc4612bbc82612b9d565b848454612b1f565b825550505050565b600090565b612bd9612bcc565b612be4818484612ba7565b505050565b5b81811015612c0857612bfd600082612bd1565b600181019050612bea565b5050565b601f821115612c4d57612c1e81612aed565b612c2784612b02565b81016020851015612c36578190505b612c4a612c4285612b02565b830182612be9565b50505b505050565b600082821c905092915050565b6000612c7060001984600802612c52565b1980831691505092915050565b6000612c898383612c5f565b9150826002028217905092915050565b612ca28261222a565b67ffffffffffffffff811115612cbb57612cba612527565b5b612cc58254612841565b612cd0828285612c0c565b600060209050601f831160018114612d035760008415612cf1578287015190505b612cfb8582612c7d565b865550612d63565b601f198416612d1186612aed565b60005b82811015612d3957848901518255600182019150602085019450602081019050612d14565b86831015612d565784890151612d52601f891682612c5f565b8355505b6001600288020188555050505b505050505050565b600081905092915050565b6000612d818261222a565b612d8b8185612d6b565b9350612d9b818560208601612246565b80840191505092915050565b6000612db38285612d76565b9150612dbf8284612d76565b91508190509392505050565b6000612dd6826122dc565b9150612de1836122dc565b9250828203905081811115612df957612df8612901565b5b92915050565b7f4e487b7100000000000000000000000000000000000000000000000000000000600052603160045260246000fd5b7f4e487b7100000000000000000000000000000000000000000000000000000000600052601260045260246000fdfea264697066735822122034bc946b9d873c8ef45da5d9a706e306b58516ad9cd54e6b9bf3cba89c3b539c64736f6c63430008140033",
  "linkReferences": {},
  "deployedLinkReferences": {}
}